:100000000C94D21E0C94121F0C94121F0C94121FED
:100010000C94121F0C94121F0C94121F0C94121F9C
:100020000C94121F0D943E2B0D943E2B0D943E2BE1
:100030000C94121F0C94121F0C94121F0C94121F7C
:100040000C94121F0C94DB380C94121F0C94121F8A
:100050000C94121F0C94FE320C94121F0D94283035
:100060000C94121F0C94A2850C9498850C94121F6A
:100070000C94121F0C94121F0C94121F0C94121F3C
:100080000C94121F0C94121F0C94121F0C94121F2C
:100090000C94121F0C94121F0C94121F0C94121F1C
:1000A0000C94121F0C94121F0C94121F0C94121F0C
:1000B0000C94121F0C94121F0C94121F0C94121FFC
:1000C0000C94121F0C94121F0C94121F0C94121FEC
:1000D0000C94121F0C94121F0C94121F0C94121FDC
:1000E0000C94121F084AD73B3BCE016E84BCBFFD67
:1000F000C12F3D6C74319ABD56833DDA3D00C77FF8
:1001000011BED9E4BB4C3E916BAAAABE0000008090
:100110003F05A84CCDB2D44EB93836A9020C50B91F
:10012000918688083CA6AAAA2ABE000000803F0744
:10013000634236B79BD8A71A39685618AEBAAB5582
:100140008C1D3CB7CC5763BD6DEDFD753EF6177247
:1001500031BF000000803F08000000BE9224491219
:100160003EABAAAA2ABECDCCCC4C3E00000080BE3D
:10017000ABAAAAAA3E00000000BF000000803F001A
:1001800000000000084178D3BB4387D1133D190E0E
:100190003CC3BD4282AD2B3E68EC8276BED98FE176
:1001A000A93E4C80EFFFBE01C4FF7F3F000000006E
:1001B00000000D949A0A0D94C80C0D94650B0D94D3
:1001C000FF000D94530B0D94D0370D94480D0D94F2
:1001D000430B0D94562C0D94490B0D94920C0D94D9
:1001E000730B0D944D0B0D9481300D94B20C0D9446
:1001F000B90B0D94A32E0D94330D0D94F30B0D94A8
:100200002E0B0D94F2030D94B6370D94E60B0D945E
:100210009A0C0D94EB0C0D94690B0D94442C0D94D9
:100220005B0B0D9433080D94370D0D946E0B0D94EC
:10023000400B0D943E0A0D94250A0D94B0050D94C3
:100240001F2E0D94B10A0D94F40B0D946F0B0D94A9
:10025000340B0D94FB020D946A2D0D943C0B0D9400
:100260002F0D0D94570B0D943D0A0D943F0D0D94D9
:10027000610B0D94380B0D940D0D4E414E494E49B6
:100280005459494E46CDCCCC3D0AD7233C17B7D163
:100290003877CC2B329595E6241FB14F0A00002009
:1002A000410000C84200401C4620BCBE4CCA1B0E88
:1002B0005AAEC59D7441425300504C410045727284
:1002C0003A20454550524F4D20436F7272757074FD
:1002D000004572723A20454550524F4D20435243DB
:1002E000004572723A20454550524F4D2053697A6D
:1002F00065004572723A20454550524F4D20566573
:100300007273696F6E00B902B502436F6F6C646FF0
:10031000776E005072656865617420240046616ED6
:1003200020537065656400426564004E6F7A7A6C94
:1003300065004D61696E0045310043004200410097
:100340004531005A00590058004531005A00590003
:100350004F6666004F6E005800544D43204472694A
:100360007665727300537465616C746843686F706E
:1003700020456E61626C6564005374657070696ECF
:1003800067204D6F64650048796272696420546823
:10039000726573686F6C640044726976657220439D
:1003A000757272656E7400416476616E6365642077
:1003B00053657474696E677300466C6F77004661AD
:1003C0006E20537065656400426564004E6F7A7AF2
:1003D0006C65005370656564004D61696E000000D6
:1003E00000000000000000004843486F6D696E6720
:1003F000204661696C6564006F70656E00545249F7
:10040000474745524544003A20007A5F6D617800C5
:100410007A5F6D696E00795F6D617800785F6D61FC
:1004200078005265706F7274696E6720656E6473D0
:10043000746F70207374617475730A000000484310
:100440000000484300004843000000000000000096
:100450000000000020746F6F206C6F6E672065785D
:1004600074727573696F6E2070726576656E7465EF
:10047000640A0020636F6C64206578747275736918
:100480006F6E2070726576656E7465640A005761E0
:10049000726E696E673A20486F6D696E67204275AB
:1004A0006D702044697669736F72203C20310A00B8
:1004B0000202020000484300004843000048430095
:1004C00000A0400000A0400000A04050726F626990
:1004D0006E67204661696C65640A0050726F6269DC
:1004E0006E67204661696C656400205A3A200020DE
:1004F000593A200042656420583A200053657474CC
:10050000696E67732053746F72656400290A002056
:1005100062797465733B2063726320005365747461
:10052000696E67732053746F726564202800486198
:100530007264636F6465642044656661756C7420E1
:1005400053657474696E6773204C6F6164656400F1
:1005500020286D6D2900203B204C6576656C696E06
:1005600067200020204D3432302053004175746FD5
:1005700020426564204C6576656C696E6700204694
:100580000020420020480020204D31343520530007
:100590004D6174657269616C206865617475702065
:1005A000706172616D65746572730020204D393021
:1005B00036002054302045005374657070657220F9
:1005C0006472697665722063757272656E7400205C
:1005D000204D393133002054302045004879627273
:1005E0006964205468726573686F6C640020204DE4
:1005F000353639205331005430204500205800440E
:100600007269766572207374657070696E67206DAB
:100610006F646500204A0020204732392057204966
:100620000020204D3134392043203B20556E697421
:100630007320696E2043656C736975730A00546595
:100640006D706572617475726520556E69747300A2
:100650002020473231203B004C696E656172205585
:100660006E69747300454550524F4D20646174614A
:1006700073697A65206572726F722E0A0020286392
:10068000616C63756C6174656429210A0020213DE9
:100690002000454550524F4D20435243206D697311
:1006A0006D61746368202D202873746F72656429EE
:1006B0002000454550524F4D20436F727275707443
:1006C0000A002053697A653A2000496E6465783AD9
:1006D0002000290A002062797465733B20637263ED
:1006E00020002073746F7265642073657474696E82
:1006F00067732072657472696576656420280000EE
:1007000000964300009643000096430000C8410055
:1007100000A0420000A0420000A0420000FA43E80E
:10072000030000E8030000E8030000B80B0000200D
:100730004D61726C696E3D563838290A0045455046
:10074000524F4D2076657273696F6E206D69736DBF
:10075000617463682028454550524F4D3D00433A2F
:1007600000423A0020436F756E7420413A00004207
:100770006564004531004500626564002C20737992
:100780007374656D2073746F7070656421204865A3
:10079000617465725F49443A20004572723A204D97
:1007A000415854454D50004D415854454D502074CA
:1007B00072696767657265640048656174696E6730
:1007C000204661696C65640048656174696E6720E4
:1007D0006661696C6564004572723A204D494E54F9
:1007E000454D50004D494E54454D50207472696737
:1007F000676572656400544845524D414C2052551E
:100800004E4157415900546865726D616C205275B4
:100810006E61776179000A0A0020205A5F4D4158C5
:100820003A0020205A5F4D494E3A002020595F4D32
:1008300041583A002020585F4D41583A00202F007F
:100840002042403A0020403A007C3C3E5E2B3D3F37
:100850002F5B5D3B2C2A225C004D65646961204959
:100860006E6974204661696C005344206361726450
:10087000206F6B0A006F70656E526F6F7420666137
:10088000696C65640A00766F6C756D652E696E69BA
:1008900074206661696C65640A004E6F20534420C1
:1008A000636172640A00534420636172642072655C
:1008B0006C65617365640A000A4D3234004D323351
:1008C000202573002E0A006F70656E206661696CCA
:1008D00065642C2046696C653A200046696C652089
:1008E00073656C65637465640A002053697A653AC0
:1008F000200046696C65206F70656E65643A200063
:10090000454E4420535542524F5554494E450A00D6
:100910002220706F73002220706172656E743A221B
:1009200000535542524F5554494E452043414C4C7B
:10093000207461726765743A220053756263616C5A
:100940006C204F766572666C6F77004578636565DD
:10095000646564206D617820535542524F55544967
:100960004E452064657074683A0057726974696E08
:100970006720746F2066696C653A2000434F4D4DC7
:10098000554E49434154494F4E0044525952554ED9
:10099000004552524F525300494E464F004543487E
:1009A0004F00363726023C3D380F2E303E12131AC8
:1009B0001C180A074309070844000153544F5050BC
:1009C00045442E20005072696E7465722073746FF6
:1009D000707065642064756520746F206572726F35
:1009E00072732E2046697820746865206572726F74
:1009F0007220616E6420757365204D393939207419
:100A00006F20726573746172742E202854656D7046
:100A1000657261747572652069732072657365749F
:100A20002E2053657420697420616674657220728B
:100A3000657374617274696E67290A004E6F204392
:100A40006865636B73756D2077697468206C696E77
:100A500065206E756D6265722C204C617374204C3C
:100A6000696E653A20004E6F20436865636B73754D
:100A70006D2077697468206C696E65206E756D6293
:100A800065722C204C617374204C696E653A2000AD
:100A9000636865636B73756D206D69736D617463F5
:100AA000682C204C617374204C696E653A20004CB0
:100AB000696E65204E756D626572206973206E6F78
:100AC00074204C617374204C696E65204E756D62A4
:100AD00065722B312C204C617374204C696E653A21
:100AE00020004D3131300053657269616C207374A0
:100AF00061747573206D69736D617463680A005366
:100B0000442072656164206572726F720A004B49FD
:100B10004C4C20627574746F6E2F70696E0A0021E0
:100B200021204B494C4C20636175736564206279C8
:100B30002000746F6F206D75636820696E61637447
:100B40006976652074696D65202D20637572726504
:100B50006E7420636F6D6D616E643A2000212120F8
:100B60004B494C4C206361757365642062792000A9
:100B7000627573793A2070617573656420666F726F
:100B800020696E7075740A00627573793A2070611D
:100B90007573656420666F7220757365720A0062F2
:100BA0007573793A2070726F63657373696E670A43
:100BB000004D656469612052656D6F766564004D16
:100BC0006564696120496E73657274656400506C78
:100BD00065617365205265736574005052494E54C7
:100BE00045522048414C5445440025533A20255352
:100BF000004B494C4C45442E20005072696E746580
:100C0000722068616C7465642E206B696C6C282995
:100C10002063616C6C6564210A006563686F3A004B
:100C20004572726F723A004F4646004F4E0042695D
:100C30006C696E656172204C6576656C696E6720C3
:100C4000477269643A0A004C4F57004849474800C8
:100C50004F4B004572726F723A20416C6C2000203D
:100C6000636F6E6E656374696F6E2E2E2E20005456
:100C7000657374696E6720004C4F570048494748B8
:100C8000004F4B004572726F723A20416C6C20002D
:100C900020636F6E6E656374696F6E2E2E2E20005A
:100CA00054657374696E6720004C4F57004849477C
:100CB00048004F4B004572726F723A20416C6C20B5
:100CC0000020636F6E6E656374696F6E2E2E2E202A
:100CD0000054657374696E6720004C4F5700484993
:100CE0004748004F4B004572726F723A20416C6C5E
:100CF000200020636F6E6E656374696F6E2E2E2EFA
:100D0000200054657374696E672000544D4320437E
:100D10004F4E4E454354494F4E204552524F52007C
:100D20004F46460A004661646520486569676874F5
:100D30002000426564204C6576656C696E67200012
:100D40004661696C656420746F20656E61626C65D4
:100D500020426564204C6576656C696E670A0049BF
:100D60006E76616C6964206D6573682E0A0050723E
:100D70006F62696E6720506F696E7400255320257D
:100D8000692F2569002E0A002F0050726F62696E6C
:100D900067206D65736820706F696E74200020286D
:100DA00044525952554E2900473239204175746FCB
:100DB00020426564204C6576656C696E67003F2053
:100DC000284C2C522C462C4229206F7574206F66BB
:100DD00020626F756E64732E0A003F285629657273
:100DE000626F7365206C6576656C20696D706C61EF
:100DF000757369626C652028302D34292E0A0042F3
:100E00006164205A2076616C75650A004E6F20621D
:100E1000696C696E65617220677269640A002020DE
:100E20000020205261646975733A00547A00547945
:100E30000054780020205261646975733A00457A45
:100E4000004579004578002E4865696768743A0066
:100E50007879007A7800797A00207A002079002069
:100E6000780063002E2020202000253033692E7862
:100E700000302E25303369002073643A00737464A7
:100E8000206465763A00456E64204452592D5255CF
:100E90004E00737464206465763A004E6F20636F71
:100EA0006E76657267656E6365004974657261741C
:100EB000696F6E203A2025303269005361766520D3
:100EC00077697468204D35303020616E642F6F7201
:100ED00020636F707920746F20436F6E6669677549
:100EE000726174696F6E2E680A00253033692E783E
:100EF00000302E253033690043616C696272617481
:100F0000696F6E2073643A00737464206465763A86
:100F100000726F6C6C696E67206261636B2E0043B8
:100F2000616C6962726174696F6E204F4B00436F30
:100F300072726563742064656C7461207365747487
:100F4000696E67732077697468204D363635206185
:100F50006E64204D3636360A0020284452592D52F0
:100F6000554E2900206174207261646975733A00DE
:100F7000436865636B696E672E2E2E2041430047E0
:100F80003333204175746F2043616C696272617400
:100F9000650A003F2856296572626F7365206C658B
:100FA00076656C20696D706C61757369626C652023
:100FB00028302D33292E0A003F2846296F72636599
:100FC00020697465726174696F6E20696D706C61FF
:100FD000757369626C652028302D3330292E0A0024
:100FE0003F284329616C6962726174696F6E207079
:100FF0007265636973696F6E20696D706C6175737A
:1010000069626C6520283E3D30292E0A003F285039
:10101000296F696E747320696D706C617573696294
:101020006C652028302D3130292E0A002043002005
:101030004200204100205300204800205200202080
:101040004D363635204C0044656C746120284C3C8C
:10105000646961676F6E616C2D726F643E20523CF3
:101060007261646975733E20483C6865696768749D
:101070003E20533C7365672D7065722D7365633E2A
:101080002058595A3C746F7765722D616E676C6594
:101090002D7472696D3E204142433C726F642D7421
:1010A00072696D3E290020204D36363620580045A5
:1010B0006E6473746F702061646A7573746D656EAD
:1010C000740020440020204D32303020530020286E
:1010D00044697361626C6564293A0046696C616DAC
:1010E000656E742073657474696E67730020204D9B
:1010F0003230312058004D617820416363656C6562
:10110000726174696F6E2028756E6974732F733203
:10111000290020204D3230332058004D6178206660
:1011200065656472617465732028756E6974732FC8
:1011300073290020520020204D32303420500041CD
:101140006363656C65726174696F6E2028756E6982
:1011500074732F7332292028503C7072696E742D7D
:10116000616363656C3E20523C72657472616374A6
:101170002D616363656C3E20543C74726176656CCE
:101180002D616363656C3E290020540020530020CC
:10119000204D323035204200416476616E636564D3
:1011A0002028423C6D696E5F7365676D656E745F84
:1011B00074696D655F75733E20533C6D696E5F6643
:1011C000656564726174653E20543C6D696E5F7440
:1011D000726176656C5F66656564726174653E20F8
:1011E000583C6D61785F6A65726B3E20593C6D6159
:1011F000785F6A65726B3E205A3C6D61785F6A6504
:10120000726B3E20453C6D61785F6A65726B3E296A
:101210000020440020490020204D33303120500070
:10122000486F74656E64205049440050574D3A2011
:10123000202534640050574D3A2020253464005056
:10124000574D3A20202534640050574D3A20202530
:1012500034640050574D3A20202534640050574DD7
:101260003A20202534640050574D3A20202534641C
:101270000050574D3A20202534640050574D3A20F5
:10128000202534640050574D3A2020253464005006
:10129000574D3A20202534640050574D3A202025E0
:1012A00034640050574D3A20202534640050574D87
:1012B0003A20202534640050574D3A2020253464CC
:1012C0000050574D3A2020253464003A2000202059
:1012D0002020434F4D002020206E6F6E2D737461CF
:1012E0006E646172642050574D206D6F64650020FC
:1012F0002020636F6D7061726520696E7465727213
:1013000075707420656E61626C6564002020206FCA
:10131000766572666C6F7720696E7465727275702F
:101320007420656E61626C6564003A2000202020A4
:101330002054494D534B00423A2000202020205495
:1013400043435200413A200020202020544343527E
:10135000002020202043533A2000202020205747FF
:101360004D3A200050574D3A202025346400505704
:101370004D3A2020253464004700480000008800D2
:101380008A008C00B300B400000098009A009C0012
:10139000A800AA00AC0028012A012C01202020204E
:1013A00054494D455200440045006E0080008100C4
:1013B0006F00B000B1007000900091007100A000BB
:1013C000A100720020012101730020697320616C6B
:1013D000736F207469656420746F2074686973206A
:1013E00070696E0054494D45523143000A202E0069
:1013F0002020002020506F72743A20004C4F57007C
:101400004849474800446F6E652E0A0050756C735A
:10141000696E6720202000556E746F75636865647F
:101420002000534552564F206E6F74207365742010
:1014300075702E0A00436C69636B20746F205265CF
:1014400073756D652E2E2E00202D2000576174635C
:1014500068696E672070696E00206973007320618F
:101460007265002070726F7465637465642E205518
:1014700073652027492720746F206F766572726923
:1014800064652E0A0053706563696669656420703F
:10149000696E0064697300656E0061626C65640A60
:1014A00000656E6473746F70206D6F6E69746F7217
:1014B0002000202E68737472743A2000202E686514
:1014C0006E643A20002063686F70706572202E741D
:1014D0006F66663A2000202E68737472743A20009A
:1014E000202E68656E643A20002063686F70706516
:1014F00072202E746F66663A2000202E6873747214
:10150000743A2000202E68656E643A2000206368DB
:101510006F70706572202E746F66663A2000202E00
:1015200068737472743A2000202E68656E643A20E5
:10153000002063686F70706572202E746F66663A63
:1015400020003F53206F7574206F662072616E67B4
:10155000652028312E2E38290A003F50206F7574DF
:10156000206F662072616E676520282D332E2E3124
:1015700032290A003F4F206F7574206F6620726118
:101580006E67652028312E2E3135290A003B200058
:1015900020496E76616C6964206578747275646543
:1015A000722000536C6565702E2E2E00486F6D659D
:1015B000202573204669727374005A2050726F623E
:1015C0006520506173742042656400205A3A2000FF
:1015D00020593A200042656420583A20004D657336
:1015E0006820706F696E74206F7574206F6620724A
:1015F000616E67650A00436C69636B20746F2052EB
:101600006573756D652E2E2E004E6F204D6F7665BD
:101610002E00456E642066696C65206C6973740ADF
:1016200000426567696E2066696C65206C69737439
:101630000A004E6F206D656469610A00286E6F2094
:1016400066696C65290043757272656E74206669FF
:101650006C653A20004E6F74205344207072696E9E
:1016600074696E670A005344207072696E74696E03
:1016700067206279746520002E0A0044656C6574E9
:10168000696F6E206661696C65642C2046696C65C3
:101690003A200046696C652064656C657465643A3F
:1016A000002569730025696D202569730025696827
:1016B0002025696D202569730025696420256968E6
:1016C0002025696D202569730025697920256964C5
:1016D000202569682025696D20256973005072698D
:1016E0006E742074696D653A20006F6B006F6666DA
:1016F000009D09980991098A097C0944454255478A
:101700003A004D3131322053687574646F776E0042
:101710004D3131332053004D6963726F6D616B65DC
:10172000204431202F204D4B532047656E204C2004
:1017300056322E31204F46462E002F2F004D313489
:101740003520533C696E6465783E206F7574206F58
:10175000662072616E67652028302D31290A005796
:1017600041524E494E4721204C6F77205A204A65FE
:10177000726B206D6179206C65616420746F2075D7
:101780006E77616E746564207061757365732E0A7F
:101790000020204D61783A2000200020204D696E05
:1017A0003A2000203B200020204D323131205300D0
:1017B000536F667420656E6473746F707300250ACE
:1017C0000046523A0020466C6F773A2000646973F5
:1017D00000656E0043290A0061626C656420286D13
:1017E000696E2074656D702000436F6C64206578AD
:1017F0007472756465732061726520004D343231F6
:1018000020696E636F727265637420706172616DBE
:10181000657465722075736167650A004D6573684C
:1018200020706F696E74206F7574206F662072610E
:101830006E67650A00454550524F4D204F4B0A00D8
:101840003F4D363636206F666673657473206D754E
:101850007374206265203C3D20300A00290A002074
:10186000746F20003F5A206F7574206F662072617C
:101870006E6765202800290A0020746F20003F59F8
:10188000206F7574206F662072616E676520282D49
:1018900000290A0020746F20003F58206F757420C3
:1018A0006F662072616E676520282D002064726962
:1018B0007665722063757272656E743A20002064DA
:1018C00072697665722063757272656E743A200073
:1018D000206472697665722063757272656E743AFF
:1018E0002000206472697665722063757272656E7D
:1018F000743A20007370726561644379636C6500AB
:10190000737465616C746843686F700020647269F9
:10191000766572206D6F64653A0900737072656157
:10192000644379636C6500737465616C74684368C3
:101930006F700020647269766572206D6F64653A1D
:1019400009007370726561644379636C6500737438
:1019500065616C746843686F7000206472697665B5
:1019600072206D6F64653A0900737072656164433B
:1019700079636C6500737465616C746843686F703B
:101980000020647269766572206D6F64653A0900A3
:1019900020737465616C746843686F70206D617842
:1019A0002073706565643A200020737465616C74FF
:1019B0006843686F70206D61782073706565643A64
:1019C000200020737465616C746843686F70206DCB
:1019D00061782073706565643A20002073746561D6
:1019E0006C746843686F70206D61782073706565F2
:1019F000643A20004D383400446F6E65207072697F
:101A00006E74696E672066696C650A004D37370031
:101A10004D333100496E76616C696420657874726B
:101A2000756465720A004361703A00434F4E46493F
:101A3000475F4558504F5254004D45415450414323
:101A40004B00434F4F4C45525F54454D504552411A
:101A500054555245004348414D4245525F54454D0F
:101A60005045524154555245004241425953544504
:101A70005050494E470041524353004D4F54494F37
:101A80004E5F4D4F44455300544845524D414C5FC5
:101A900050524F54454354494F4E00455854454EBB
:101AA0004445445F4D323000435553544F4D5F46DB
:101AB00049524D574152455F55504C4F4144004C9F
:101AC000464E5F5752495445004C4F4E475F46497A
:101AD0004C454E414D45004155544F5245504F5293
:101AE000545F53445F5354415455530053445F571C
:101AF0005249544500524550454154004D554C54AF
:101B0000495F564F4C554D450053444341524400A4
:101B100050524F4D50545F535550504F52540048FF
:101B20004F53545F414354494F4E5F434F4D4D41D6
:101B30004E445300454D455247454E43595F504131
:101B40005253455200434153455F4C494748545F07
:101B50004252494748544E45535300544F47474C0F
:101B6000455F4C494748545300534F4654574152E0
:101B7000455F504F574552004255494C445F5045D0
:101B80005243454E54004C4556454C494E475F44E0
:101B9000415441005A5F50524F42450052554E4FFA
:101BA0005554004155544F4C4556454C00505249F0
:101BB0004E545F4A4F420050524F475245535300D4
:101BC0004155544F5245504F52545F54454D50006B
:101BD0004155544F5245504F52545F504F53005649
:101BE0004F4C554D455452494300454550524F4D79
:101BF0000042494E4152595F46494C455F5452415B
:101C00004E534645520053455249414C5F584F4E42
:101C10005F584F4646004649524D574152455F4E28
:101C2000414D453A4D61726C696E20322E312E3233
:101C30002E3520284A756E20313220323032352040
:101C400032313A35363A32332920534F55524345D3
:101C50005F434F44455F55524C3A676974687562FB
:101C60002E636F6D2F4D61726C696E4669726D7770
:101C70006172652F4D61726C696E2050524F544FE6
:101C8000434F4C5F56455253494F4E3A312E302008
:101C90004D414348494E455F545950453A4D69635B
:101CA000726F6D616B65204431202F204D4B5320A6
:101CB00047656E204C2056322E31204558545255DF
:101CC0004445525F434F554E543A3120555549448F
:101CD0003A63656465326132662D343161322D3488
:101CE0003734382D396231322D63353563363266FB
:101CF00033363766660047322F47332062616420EF
:101D0000706172616D65746572730A00203B00201A
:101D1000204D3835312058005A2D50726F626520A1
:101D20004F66667365740020573A00436F6F6C69A5
:101D30006E672E2E2E0045312025530020573A0085
:101D400042656420436F6F6C696E672E2E2E0042D1
:101D500065642048656174696E672E2E2E002066CA
:101D600061696C6564212042616420686561746505
:101D7000722069640A00504944204175746F74757B
:101D80006E650023646566696E652044454641556D
:101D90004C545F004B6420004B6920004B702000C6
:101DA0002066696E697368656421205075742074BB
:101DB0006865206C617374204B702C204B69206126
:101DC0006E64204B6420636F6E7374616E74732055
:101DD00066726F6D2062656C6F7720696E746F201C
:101DE000436F6E66696775726174696F6E2E680AFB
:101DF00000504944204175746F74756E650020660B
:101E000061696C6564212074696D656F75740A0081
:101E1000504944204175746F74756E650020666189
:101E2000696C6564212054656D70657261747572AA
:101E30006520746F6F20686967680A005049442004
:101E40004175746F74756E65005049442043796321
:101E50006C65730025532025692F256900204B648C
:101E60003A2000204B693A2000204B703A20002095
:101E7000436C617373696320504944200A00205405
:101E8000753A2000204B753A2000206D61783A2089
:101E900000206D696E3A200020643A2000206269BB
:101EA00061733A200048656174696E672E2E2E00BA
:101EB0002073746172740A00504944204175746F34
:101EC00074756E6500206661696C656421205465D7
:101ED0006D706572617475726520746F6F206869CA
:101EE00067680A00504944204175746F74756E65C7
:101EF00000504944204175746F74756E6500A100EF
:101F000000006900A20000006300B00000000900AA
:101F1000C10000004100C20000004100C3000000F9
:101F20004100C40000004100C50000004100C6009F
:101F300000004145C70000004300C8000000450004
:101F4000C90000004500CD0000004900D10000009C
:101F50004E00D50000004F00D60000004F00D70013
:101F600000007800DC0000005500DD000000590092
:101F7000E00000006100E10000006100E2000000FC
:101F80006100E30000006100E40000006100E50082
:101F900000006100E60000006165E70000006300EA
:101FA000E80000006500E90000006500EA000000AC
:101FB0006500EB0000006500EC0000006900ED002A
:101FC00000006900EE0000006900EF0000006900F9
:101FD000F10000006E00F20000006F00F30000004E
:101FE0006F00F40000006F00F50000006F00F600C5
:101FF00000006F00F80000006F00F900000075009D
:10200000FA0000007500FB0000007500FC000000F5
:102010007500FD0000007900FF0000007900040158
:1020200000004100050100006100060100004300BE
:102030000701000063000C01000043000D010000D7
:1020400063000E01000044000F0100006400110154
:10205000000064001901000065001A01000045003D
:102060001B01000065001F01000067003001000037
:102070004900310100006900410100004C004201AB
:1020800000006C00430100004E00440100006E009F
:10209000480100006E005801000052005901000084
:1020A00072005A01000053005B01000073005F01E1
:1020B0000000730060010000530061010000730024
:1020C0006501000074006F01000075007C010000D4
:1020D0007A007D0100005A007E0100007A00920122
:1020E00000006600E30200007800222000002E00BD
:1020F0001E210000507822210000544D9021000044
:102100003C2D922100002D3EB02100000300BB2198
:10211000000004003C2200007E00482200007E3DBA
:1021200060220000213D612200003D006422000089
:102130003C3D652200003E3DF12300000700A03039
:1021400000003D0021F301000200C2F4010005007F
:10215000A1000000A900A2000000A400A30000004C
:10216000A500A5000000A600A7000000D200A9005D
:102170000000CF00AA0000009D00AB000000BB00E3
:10218000AE000000CE00B0000000B200B1000000C0
:102190001000B20000001E00B30000001F00B600D7
:1021A0000000D300BA0000009E00BB000000BC008D
:1021B000BC000000B600BD000000B500BF0000007C
:1021C0009F00C20000008F00C3000000AA00C400EE
:1021D00000008E00C60000009200C70000008000D2
:1021E000C90000009000D10000009C00D500000054
:1021F000AC00D60000009900D7000000B700D8005E
:102200000000AE00DC0000009A00E0000000850045
:10221000E1000000A000E20000008300E3000000F5
:10222000AB00E40000008400E50000008600E6004A
:1022300000009100E70000008700E80000008A002D
:10224000E90000008200EA0000008800EB000000C6
:102250008900EC0000008D00ED000000A100EE0000
:1022600000008C00EF0000008B00F10000009B00DC
:10227000F20000009500F3000000A200F40000004E
:102280009300F5000000AD00F60000009400F70098
:102290000000B800F8000000AF00F900000097004F
:1022A000FA000000A300FB0000009600FC00000004
:1022B0008100FF000000980092010000A8008E033A
:1022C0000000DB008F030000DE0090030000E70049
:1022D00093030000D40094030000D500980300008D
:1022E000D6009B030000D7009E030000D800A00387
:1022F0000000D900A3030000DA00A5030000DB0002
:10230000A6030000DC00A8030000DD00A903000014
:10231000DE00AC030000DF00AD030000E300AE030D
:102320000000E500AF030000E700B0030000F1008B
:10233000B1030000DF00B2030000E000B3030000BF
:10234000E100B4030000E200B5030000E300B603BF
:102350000000E400B7030000E500B8030000E60059
:10236000B9030000E700BA030000E800BB03000067
:10237000E900BC030000EA00BD030000EB00BE035F
:102380000000EC00C0030000ED00C1030000EE00FF
:10239000C3030000EF00C4030000F000C503000009
:1023A000F100C7030000F200C8030000F300C903F6
:1023B0000000F400CA030000E700CB030000F100B6
:1023C000CD030000F100CE030000F4002220000045
:1023D000CD001E210000A70022210000D000A42172
:1023E0000000F900B5210000C400BB21000004007A
:1023F000E5210000FB001A220000BE001E220000A2
:10240000C2002B2200001B003C2200001D004822BD
:1024100000001A0060220000BD00612200001100CF
:1024200064220000B90065220000BA0020230000E9
:10243000C00021230000C100A72300001400A9232D
:1024400000001500AB2300001600AD2300001700AC
:10245000B02300001800B12300001900B2230000CF
:102460001200B32300001300F123000007000C2525
:102470000000C90010250000CA0014250000CB0090
:1024800018250000CC00F8250000C300602B0000D8
:10249000C800612B0000C500622B0000C700632B41
:1024A0000000C600C62B0000F500C72B0000F70097
:1024B000C82B0000F6000000000001020404000028
:1024C000001C1C0C040404020100000000000408AD
:1024D00010000000000003002D2D2D2D2D2D007C5F
:1024E0004D61726C696E7C0001002D2D2D2D2D2DFE
:1024F000002500503A002568753A2530326875008D
:1025000025303268753A25303268750025303268DA
:102510007527253032687500200020003A003A0007
:10252000001C1F11111F00000006191803130C00D6
:10253000040E1F041C000000000E1315110E0000F5
:102540001C10181705060500040A0A0A0A11110EC4
:102550000C12120C00000000001F1511151F0000C6
:1025600042656400456E636C6F737572650045006B
:1025700020002500202020202020200020002020D6
:10258000202000200020002F006572720050726928
:102590006E742041626F72746564004D3235005074
:1025A000617573696E672E2E2E004D3234003F0028
:1025B00049676E6F726500526573657400496E6994
:1025C0007469616C697A6520454550524F4D004DE4
:1025D0006F76696E672E2E2E0046696C2E20446938
:1025E000612E004520696E206D6D5E330020022053
:1025F00046616374002002204D6178002002204D66
:10260000696E004F6666004F6E004175746F7465A9
:102610006D70004D696E2054726176656C20537048
:10262000656564004D696E2056656C6F63697479E9
:10263000004D61782040205370656564004D6178DD
:10264000204520416363656C004D61782040204146
:102650006363656C0054726176656C2041636365E9
:102660006C005265747261637420416363656C0031
:10267000416363656C004D61782040204A65726B50
:102680000050726F6265205A204F66667365740051
:1026900050726F62652059204F66667365740050F2
:1026A000726F62652058204F666673657400402023
:1026B00073746570732F6D6D00416476616E636530
:1026C000642053657474696E6773003F0043616EE4
:1026D00063656C00496E697400496E697469616C68
:1026E000697A6520454550524F4D0046696C616DD1
:1026F000656E740054656D70657261747572650005
:10270000544D43204472697665727300537465704A
:10271000732F6D6D0050726F6265204F6666736532
:102720007473004A65726B00416363656C65726126
:1027300074696F6E004D6178205370656564202860
:102740006D6D2F732900436F6E66696775726174D2
:10275000696F6E00426564004E6F7A7A6C65004660
:10276000616E20537065656400436F6E66696775BE
:10277000726174696F6E00526573746F7265204484
:10278000656661756C7473004C6F61642053657489
:1027900074696E67730053746F7265205365747447
:1027A000696E677300507265686561742024204308
:1027B0006F6E660044656C74612043616C6962727F
:1027C0006174696F6E0050726F6265205A204F66A7
:1027D0006673657400416476616E63656420536559
:1027E0007474696E6773004D61696E004469616756
:1027F00020526F6400547A0054790054780052617A
:102800006469757300457A0045790045780048652C
:10281000696768740044656C74612043616C696227
:10282000726174696F6E0044656C746120536574E5
:1028300074696E6773004C6F6164205365747469CA
:102840006E67730053746F72652053657474696E9C
:102850006773004175746F2043616C6962726174C3
:10286000696F6E00473333004D61696E003F00426F
:1028700061636B0053746F70004E6F204D65646927
:1028800061005072696E742066726F6D204D6564D0
:102890006961004368616E6765204D656469610028
:1028A0004D323100436F6E66696775726174696F8E
:1028B0006E0054656D7065726174757265004D6F60
:1028C00074696F6E00526573756D65205072696E24
:1028D000740054756E650053746F70205072696E89
:1028E00074005061757365205072696E7400496E92
:1028F000666F2053637265656E003F0053746172AA
:1029000074205072696E740043616E63656C005090
:1029100072696E740043616E6E6F7420656E7465CB
:1029200072207375626469723A200005202E2E00B1
:102930004D61696E002100486F74656E6420746F8C
:102940006F20636F6C64004261636B0050726F6351
:10295000656564004D6F76652045787472756465B1
:10296000720046726565205859004D6F74696F6E2C
:102970000044697361626C652053746570706572A0
:1029800073004D38340046616465204865696768A6
:1029900074004F6666004F6E00426564204C657699
:1029A000656C696E67004C6576656C2042656400F5
:1029B0004732394E004175746F20486F6D6500478E
:1029C0003238004D61696E0050726568656174202F
:1029D000242042656400507265686561742024207B
:1029E000456E640054656D70657261747572650042
:1029F00045315F53455249414C5F52585F50494EF3
:102A00000045315F53455249414C5F54585F50492E
:102A10004E0045305F53455249414C5F52585F501C
:102A2000494E0045305F53455249414C5F54585F11
:102A300050494E005A5F53455249414C5F52585FCE
:102A400050494E005A5F53455249414C5F54585FBC
:102A500050494E00595F53455249414C5F52585FAF
:102A600050494E00595F53455249414C5F54585F9D
:102A700050494E00585F53455249414C5F52585F90
:102A800050494E00585F53455249414C5F54585F7E
:102A900050494E005A5F535445505F50494E005ABA
:102AA0005F454E41424C455F50494E005A5F444994
:102AB000525F50494E00595F535445505F50494E44
:102AC00000595F454E41424C455F50494E00595FA9
:102AD0004449525F50494E00585F535445505F502F
:102AE000494E00585F454E41424C455F50494E00AB
:102AF000585F4449525F50494E0045315F44494157
:102B0000475F50494E0045305F444941475F504957
:102B10004E005A5F444941475F50494E00595F4457
:102B20004941475F50494E00585F444941475F5013
:102B3000494E005A5F53544F505F50494E005A5F00
:102B40004D494E5F50494E005A5F4D41585F5049C4
:102B50004E00595F53544F505F50494E00595F4DDE
:102B600041585F50494E00585F53544F505F504991
:102B70004E00585F4D41585F50494E0053455256E4
:102B80004F335F50494E00534552564F325F5049C4
:102B90004E00534552564F315F50494E00534552F7
:102BA000564F305F50494E0053445F4445544543AF
:102BB000545F50494E0053445F53535F50494E0099
:102BC000534453530053445F53434B5F50494E00AB
:102BD00053445F4D4F53495F50494E0053445F4D3E
:102BE00049534F5F50494E004D4F534645545F4344
:102BF0005F50494E004D4F534645545F425F504928
:102C00004E004D4F534645545F415F50494E00546E
:102C1000454D505F305F43535F50494E004C454433
:102C20005F50494E004C43445F50494E535F5253EE
:102C3000004C43445F50494E535F454E004C434463
:102C40005F50494E535F4437004C43445F50494EF8
:102C5000535F4436004C43445F50494E535F443504
:102C6000004C43445F50494E535F4434004B494C41
:102C70004C5F50494E004845415445525F424544DF
:102C80005F50494E004845415445525F305F5049BE
:102C90004E0045305F4155544F5F46414E5F5049AD
:102CA0004E0046414E315F50494E0046414E305F26
:102CB00050494E0045315F43535F50494E00453106
:102CC0005F535445505F50494E0045315F454E417A
:102CD000424C455F50494E0045315F4449525F5078
:102CE000494E0045305F535445505F50494E0045B2
:102CF000305F454E41424C455F50494E0045305F84
:102D00004449525F50494E00455850325F30385F59
:102D100050494E00455850325F30375F50494E00A1
:102D2000455850325F30365F50494E00455850325A
:102D30005F30355F50494E00455850325F30345F48
:102D400050494E00455850325F30335F50494E0075
:102D5000455850325F30325F50494E00455850322E
:102D60005F30315F50494E00455850315F30385F19
:102D700050494E00455850315F30375F50494E0042
:102D8000455850315F30365F50494E0045585031FC
:102D90005F30355F50494E00455850315F30345FE9
:102DA00050494E00455850315F30335F50494E0016
:102DB000455850315F30325F50494E0045585031D0
:102DC0005F30315F50494E0042544E5F454E4300E4
:102DD00042544E5F454E320042544E5F454E3100E4
:102DE0004245455045525F50494E004156525F534F
:102DF000535F50494E004156525F53434B5F504919
:102E00004E004156525F4D4F53495F50494E00416D
:102E100056525F4D49534F5F50494E0054454D50F7
:102E20005F4245445F50494E0054454D505F315F0D
:102E300050494E0054454D505F305F50494E00465A
:102E4000494C57494454485F50494E005458443007
:102E5000005258443000667265736800646F696E92
:102E600067002066696C653A20004E6F7720002F5E
:102E70006175746F25632E67006D61726C696E6693
:102E8000772E6F7267006D61726C696E66772E6F58
:102E9000726700322E312E322E3500322E312E3214
:102EA0002E3500006D61726C696E66772E6F7267E9
:102EB000006D61726C696E66772E6F7267002032EA
:102EC0002E312E322E35002001400130013B0140D1
:102ED0000136016001310170012C0190012701B020
:102EE000012201C0011D01F001180110021301307F
:102EF000020E016002090190020401C002FF0000FD
:102F000003FA004003F5008003F000D003EB00203B
:102F100004E6007004E100E004DC004005D700C0D6
:102F200005D2004006CD00D006C8008007C300309F
:102F300008BE00F008B900C009B400B00AAF00B084
:102F40000BAA00D00CA500000EA000500F9B00C0E3
:102F50001096005012910000148C00C0158700B02C
:102F6000178200B0197D00D01B7800001E7300404E
:102F7000206E0090226900F024640040275F0090DA
:102F8000295A00E02B5500102E500020304B001025
:102F9000324600E033410090353C00103737007076
:102FA000383200A0392D00B03A2800A03B23006041
:102FB0003C1E00103D1900903D1400103E0F0070A3
:102FC0003E0A00C03E0500003F0000403FFBFF807E
:102FD0003FF6FFC03FF1FF2020506C616E6E6572BE
:102FE00042756666657242797465733A20002046C0
:102FF000726565204D656D6F72793A200020436FD0
:103000006D70696C65643A204A756E2031322032E9
:103010003032350A00204C6173742055706461743D
:1030200065643A20323032342D31312D3138207CF4
:1030300020417574686F723A204443524D0A004D26
:1030400061726C696E20322E312E322E350A0020CC
:10305000536F6674776172652052657365740A00F8
:10306000205761746368646F672052657365740AE2
:10307000002042726F776E206F7574205265736501
:10308000740A002045787465726E616C2052657315
:1030900065740A00506F77657255700A0073746129
:1030A00072740A004732385859004D3130303100BF
:1030B0006F6B006572726F722077726974696E67E8
:1030C00020746F2066696C650A00446F6E6520731A
:1030D0006176696E672066696C652E0A004D32392B
:1030E00000456E6473746F70730025532025632050
:1030F000256320256320256300656E6473746F70FB
:1031000073206869743A2000000021002400270021
:103110002A002D00300033000101000004010701E6
:103120000A0100000A0B02090C0D0E080703040136
:10313000000000000000000000000000000000008F
:10314000000000000000000000000000000012115C
:10315000100000000000000000000000000000005F
:1031600000000000000000000000200023002600F6
:1031700029002C002F00320000010000030106018D
:10318000090100002200250028002B002E0031003C
:10319000340002010000050108010B0105050505C9
:1031A000070508080808020202020A0A08080404BF
:1031B00004040101010101010101030303030303ED
:1031C0000303040707070C0C0C0C0C0C0C0C02027C
:1031D000020206060606060606060B0B0B0B0B0B79
:1031E0000B0B010210202008081020401020408006
:1031F00002010201080402010102040810204080BB
:103200008040201008040201800402018040201048
:103210000804020108040201010204081020408091
:10322000010204081020408024F404D9201BC40C9F
:103230005C0E9804C4095F0265077101F405F9008A
:10324000FB04B30048048700C1036900580355001C
:1032500003034500BE023A008402310053022A00F3
:103260002902250004022000E4011C00C801190005
:10327000AF011700980114008401130071011000C0
:103280006101100051010E0043010D0036010B00D9
:103290002B010B0020010B00150109000C01090096
:1032A00003010800FB000800F3000800EB00070022
:1032B000E4000600DE000600D8000600D20006008A
:1032C000CC000500C7000500C2000500BD000400D9
:1032D000B9000400B5000400B1000400AD00040012
:1032E000A9000400A5000300A20003009F00040041
:1032F0009B00030098000300950002009300030068
:10330000900003008D0002008B0003008800020083
:103310008600020084000300810002007F0002009A
:103320007D0002007B0002007900020077000100AE
:1033300076000200740002007200010071000200B9
:103340006F0002006D0001006C0002006A000100C5
:1033500069000200670001006600010065000100CD
:1033600064000200620001006100010060000100D1
:103370005F0002005D0001005C0001005B000100D5
:103380005A000100590001005800010057000100D7
:1033900056000100550001005400010053000000D8
:1033A00053000100520001005100010050000100D3
:1033B0004F0001004E0000004E0001004D000100D2
:1033C0004C0001004B0000004B0001004A000100CE
:1033D00049000100480000004800010047000100CA
:1033E00046000000460001004500000045000100C5
:1033F00044000100430000004300010042000000BF
:1034000042000100410000004100010040000100B5
:103410003F0000003F0001003E0000003E000100B0
:103420003D0000003D0001003C0000003C000000A9
:103430003C0001003B0000003B0001003A0000009E
:103440003A00010039000000390001003800000096
:10345000380000003800010037000000370001008C
:103460003600000036000000360001003500000084
:103470003500000035000100340000003400000079
:10348000340001003300000033000000330001006D
:103490003200000032000000320001003100000064
:1034A0003100000031000100300000003000000059
:1034B000300001002F0000002F0000002F0000004E
:1034C0002F0001002E0000002E0000002E00010041
:1034D0002D0000002D0000002D0000002D00010037
:1034E0002C0000002C0000002C0000002C0001002B
:1034F0002B0000002B0000002B0000002B0001001F
:103500002A0000002A0000002A0000002A00010012
:103510002900000029000000290000002900000007
:1035200029000100280000002800000028000000F9
:1035300028000000280001002700000027000000EC
:1035400027000000270000002700010026000000DF
:1035500026000000260000002600000026000100D2
:1035600025000000250000002500000025000000C7
:1035700025000000250001002400000024000000B8
:1035800024000000240000002400010023000000AB
:10359000230000002300000023000000230000009F
:1035A0002300000023000100220000002200000090
:1035B0002200000022000000220000002200010082
:1035C0002100000021000000210000002100000077
:1035D0002100000021000000210001002000000067
:1035E000200000002000000020000000200000005B
:1035F0002000000020000000200001001F0000004B
:103600001F0000001F0000001F0000001F0000003E
:103610001F0000001F0001001E0000001E0000002F
:103620001E0000001E00000024F4D43050C38E2081
:10363000C2A24017828B7011127A910D816CD90A47
:10364000A861E108C7586607615143061E4B5D0536
:10365000C145A7041A411104093D9803713931038A
:103660004036DB0265339102D4305402802E1D02B5
:10367000632CEE01752AC501B028A0011027810135
:103680008F2564012B244B01E0223401AC211F0162
:103690008D200D01801FFC00841EED00971DDF00B2
:1036A000B81CD200E61BC600201BBC00641AB20086
:1036B000B219A8000A19A0006A189900D117910040
:1036C00040178B00B516840031167E00B3157900C3
:1036D0003A157300C7146F0058146A00EE136600A1
:1036E0008813630025135E00C7125B006C1257003D
:1036F00015125400C111510070114F0021114B00DF
:10370000D61049008D1047004610440002104200B8
:10371000C00F4000800F3E00420F3C00060F3B00F0
:10372000CB0E3800930E37005C0E3500270E3400A8
:10373000F30D3200C10D3100900D3000600D2E00F0
:10374000320D2D00050D2C00D90C2B00AE0C2900DC
:10375000850C29005C0C2700350C27000E0C260078
:10376000E80B2400C40B2400A00B23007D0B2300D6
:103770005A0B2100390B2100180B2000F80A1F00FA
:10378000D90A1E00BB0A1E009D0A1D00800A1D00EA
:10379000630A1C00470A1B002C0A1B00110A1A00AE
:1037A000F7091A00DD091900C4091900AB0919004D
:1037B000920917007B091800630917004C091600CD
:1037C00036091600200916000A091500F50815002B
:1037D000E0081400CC081400B8081400A408140071
:1037E000900813007D0812006B081300580812009F
:1037F00046081200340811002308110012081100B5
:1038000001081100F0071000E0071000D0071000B9
:10381000C0071000B0070F00A107100091070E00AD
:1038200083070F0074070F0065070E0057070E008F
:1038300049070E003B070D002E070E0020070D0064
:1038400013070D0006070D00F9060C00ED060D002C
:10385000E0060C00D4060C00C8060C00BC060C00E8
:10386000B0060C00A4060B0099060C008D060B0098
:1038700082060B0077060B006C060B0061060A003F
:1038800057060B004C060A0042060A0038060A00DA
:103890002E060A0024060A001A060A00100609006D
:1038A00007060A00FD050900F4050900EB050900FB
:1038B000E2050900D9050900D0050900C70509007E
:1038C000BE050900B5050800AD050800A5050900FD
:1038D0009C050800940508008C0508008405080074
:1038E0007C050800740508006C05070065050800E4
:1038F0005D050700560508004E050700470507004F
:103900004005080038050700310507002A050700B3
:10391000230507001C050600160507000F05070014
:103920000805060002050700FB040600F504070071
:10393000EE040600E8040600E2040700DB040600CB
:10394000D5040600CF040600C9040600C30406001F
:10395000BD040600B7040600B1040500AC0406006F
:10396000A6040600A00405009B04060095040500BB
:10397000900406008A040500850405008004060002
:103980007A04050075040500700405006B04050049
:1039900066040500610405005C0405005704050089
:1039A000520405004D0405004804050043040500C9
:1039B0003E0404003A040500350405003004040008
:1039C0002C04050027040400230405001E04040041
:1039D0001A04040016040500110404000D04040078
:1039E000090405000404040000040400FC030400AE
:1039F000F8030400F4030400F0030400EC030400E3
:103A0000E8030400E4030400E0030400DC03040012
:103A1000D8030400D4030400D0030400CC03040042
:103A2000C8030300C50303005D2E00006E230000E1
:103A300013180000AF0E00003D08000063040000F2
:103A400045020000270100004D6F766520246D6D52
:103A500000302E303235004D6F766520302E316DBE
:103A60006D004D6F766520316D6D004D6F76652070
:103A700031306D6D004D6F76652041786973004D72
:103A80006F7665202A004D6F766520400050726980
:103A90006E742066726F6D204D6564696100200050
:103AA0002000200020002000200001010143616E61
:103AB0006E6F74206F70656E20737562646972201A
:103AC0000020202000202020416E616C6F6720695B
:103AD0006E203D2025356C64003C756E7573656401
:103AE0002F756E6B6E6F776E3E0020284125326415
:103AF00029202000253364200050494E3A20004FF1
:103B000075747075742000496E70757420200041C2
:103B10006E616C6F6720696E203D2025356C6400F6
:103B200070726F74656374656420002028412532CB
:103B30006429202000253364200050494E3A20009B
:103B4000512E00014C2E01013F2E3B00342E43002C
:103B5000292E45001C2E44000F2E3201022E330167
:103B6000F62D3401EB2D3501E02D2501D82D1F0157
:103B7000D02D2101C82D2301BC2D2501B02D2301FD
:103B8000A42D1101982D10018C2D1701802D1901E4
:103B9000742D1B01682D1D015C2D3201502D340147
:103BA000442D1F01382D35012C2D2101202D3301ED
:103BB000142D3101082D2901FD2C1C01EF2C1801B9
:103BC000E32C1A01D82C2201CA2C1E01BE2C240180
:103BD000B42C0C01AB2C0901A22C0701922C07017B
:103BE000852C0A01762C08016D2C2901612C170106
:103BF000552C1901492C1B013D2C1D01312C1101A3
:103C0000252C10011D2C0D010F2C4201022C0A0144
:103C1000F52B0701E82B0801DC2B3201D02B3301F7
:103C2000C52B3401C02B3501B62B3501A82B310132
:103C30009D2B0B01922B1501872B27017C2B20013B
:103C4000722B0201672B02015D2B0F01522B0F011A
:103C5000482B13013E2B1201332B1301282B030198
:103C60001D2B0E01122B1201062B0201FA2A0F0145
:103C7000F02A3701E32A2601D82A3601CE2A3D014F
:103C8000C12A3801B62A3C01AC2A30019F2A3E01E4
:103C9000942A2E01842A2801742A3F01642A3B01B8
:103CA000542A4001442A2A01342A4101232A2C01A2
:103CB000122A4201012A1401F0290C01220A00559E
:103CC0006E6B6E6F776E20636F6D6D616E643A2000
:103CD0002200204500205A0020590020204D393272
:103CE00020580053746570732070657220756E697A
:103CF000740020746F6F206C6F6E6720657874722B
:103D00007573696F6E2070726576656E7465640A8E
:103D10000020636F6C6420657874727573696F6ED0
:103D20002070726576656E7465640A006F6B0A00B8
:103D3000526573656E643A200020453A00205A3A75
:103D40000020593A00583A004572726F722077721B
:103D50006974696E6720746F20454550524F4D213C
:103D60000A004D6963726F6D616B65204431202FCD
:103D7000204D4B532047656E204C2056322E31206B
:103D800052656164792E005072696E74696E672E97
:103D90002E2E005072696E74205061757365640038
:103DA000E300030111241FBECFEFD1E2DEBFCDBF80
:103DB00000E00CBF84B780933D1514BE0FB6F89495
:103DC000A8958091600088618093600010926000E7
:103DD0000FBE13E0A0E0B2E0E8E1F3EA02E00BBFBF
:103DE00002C007900D92A63DB107D9F725E1A6EDD7
:103DF000B3E001C01D92AD33B207E1F71EE1C1EDA2
:103E0000DEE100E006C021970109802FFE010F943A
:103E10008A4CC03DD10780E00807A9F70F94E53A26
:103E20000D947B510C9400000F931F93CF93DF935D
:103E3000CDB7DEB760970FB6F894DEBF0FBECDBF2B
:103E40008C01DC01ED91FC910280F381E02DBE013B
:103E50006F5F7F4F1995882309F464C08981807C46
:103E6000C9F56F81637070E0762F6627770F770F43
:103E70008885B4E08B9FC0011124682B792B89853C
:103E80008295869586958370682B6F5F7F4F90E053
:103E900080E02A852370220F3B8537FB332730F9DA
:103EA000232B3E813F70230F3327331F27503109C7
:103EB00004C0660F771F881F991F2A95D2F7609656
:103EC0000FB6F894DEBF0FBECDBFDF91CF911F912B
:103ED0000F910895803419F568856695669570E0B0
:103EE00090E080E0CB01772766272A85622B098541
:103EF00010E0102F0027012E000C220B330B602B3B
:103F0000712B822B932B6F5F7F4F8F4F9F4F4AE018
:103F1000660F771F881F991F4A95D1F7D0CF8BE086
:103F2000F801848360E070E0CB01C9CFFC0182819D
:103F30000895CF93DF93C091EB11D091EC1181E004
:103F4000CE31D105E4F020E030E040E05FE3609165
:103F5000E7117091E8118091E9119091EA110F94A5
:103F6000C94C0F940D4E6C1B7D0B77FF03C07195F0
:103F70006195710981E0633071050CF080E0DF919B
:103F8000CF910895FC0190E1A8E8B5E001900D9271
:103F90009A95E1F70895CF92DF92EF92FF92809188
:103FA0001B04882309F457C0C0901704D09018044C
:103FB000E0901904F0901A0420E030E0A901C70154
:103FC000B6010F941348882309F445C020E030E07F
:103FD00040E05FE3C701B6010F9478489B01AC0154
:103FE0000F9478482BED3FE049E450E40F94784873
:103FF0009B01AC0160E070E080E89FE30F94A54D69
:104000006B017C01C092F403D092F503E092F603B9
:10401000F092F7036091200270912102072E000CAC
:10402000880B990B0F9419482AE037ED43E25CE3C3
:104030000F947848A70196010F94784860935F0227
:10404000709360028093610290936202FF90EF9000
:10405000DF90CF900895C12CD12C80E8E82E8FE31B
:10406000F82ED0CF8617970748F00F94634CCB01FA
:104070006AE070E00F94634C805D089580E20895DB
:104080000F931F93CF93DF938C0168EE73E0EADF09
:10409000C6EDD3E08C8364E670E0C801E3DF8D8376
:1040A0006AE070E0C801DEDF8E83C8016AE070E07C
:1040B0000F94634C805D8F838AED93E0DF91CF9105
:1040C0001F910F910895FC0184910895FC01808156
:1040D00008956091200270912102072E000C880B38
:1040E000990B0F9419482AE037ED43E25CE30F94F3
:1040F00078482091F4033091F5034091F6035091F4
:10410000F7030F94784860935F0270936002809386
:104110006102909362020895FC0140830895CF9359
:10412000DF93EC01BA0190E080E00F9417482DEC8A
:104130003CEC4CEC5DE30F94A54D0F94124E79834B
:104140006883DF91CF91089590E080E00F94174845
:104150002DEC3CEC4CEC5DE30F94A54D0F94124E0E
:10416000CB018ECFCF93DF93C091EB11D091EC11A7
:10417000209729F16091E7117091E8118091E91180
:104180009091EA110F940D4E6E5F7F4F24976C173C
:104190007D07ACF47093B1056093B0050F94772E52
:1041A000605C73468F4F9F4F6093B2057093B30569
:1041B0008093B4059093B505DF91CF910895109247
:1041C000B2051092B3051092B4051092B505F4CF64
:1041D000CF93DF93C091EB11D091EC11209729F18F
:1041E0006091E7117091E8118091E9119091EA11C5
:1041F0000F940D4E6E5F7F4F24976C177D07ACF4C4
:104200007093B1056093B0050F94772E605C734690
:104210008F4F9F4F6093B2057093B3058093B405A1
:104220009093B505DF91CF9108951092B205109249
:10423000B3051092B4051092B505F4CFC9CFCF9352
:10424000DF93EC018D810E94D88560E08B81DF9146
:10425000CF910D94E32BDF92EF92FF920F931F9378
:10426000CF93DF938C01C62FD22FF32EE42ED52EC1
:10427000E6DF0F94832E8C2F80640E94CC858D2DD9
:104280000E94CC858E2D0E94CC858F2D0E94CC85DE
:104290008D2F0E94CC8587E8C11101C085E90E945D
:1042A000CC85CC3011F40E94D185C0E00E94D1852C
:1042B000F801868387FF04C0CF3F11F0CF5FF6CFB0
:1042C000DF91CF911F910F91FF90EF90DF900895B4
:1042D00061E0FC0183810F94E32B8FEF0C94CC857C
:1042E0000F931F93CF938C01AADF0F94832EC82FB7
:1042F00081110AC082E1F8018483C801E9DF8C2FB3
:10430000CF911F910F9108958DEF0E94CC850F944E
:10431000832EC82FF2CF8F929F92AF92BF92CF92EF
:10432000DF92EF92FF920F931F93CF93DF93EC01F5
:104330006A017B01590120E030E0A90167E38BDFCE
:10434000A501980167E1CE0186DF811125C08F812B
:10435000833039F089E0CC0CDD1CEE1CFF1C8A9503
:10436000D1F7A701960169E1CE0175DF11E088233D
:1043700019F010E087E08C83CE01AADF812FDF9156
:10438000CF911F910F91FF90EF90DF90CF90BF9052
:10439000AF909F908F90089589E08C8310E0ECCFD0
:1043A000CF93DF93EC016EBDFA01CA019E5F0DB49D
:1043B00007FEFDCF20812EBD0DB407FEFDCF21816C
:1043C0002EBD3296E817F90791F70DB407FEFDCF21
:1043D0008FEF0E94CC858FEF0E94CC850E94D18503
:1043E0008E838F71853041F083E18C83CE0170DF45
:1043F00080E0DF91CF91089581E0FBCFEF92FF92B3
:104400001F93CF93DF93EC017B0119DF0F94832E71
:10441000182F81110BC085E18C83CE0159DF812FCC
:10442000DF91CF911F91FF90EF900895A7016CEF5E
:10443000CE01B6DF182FF1CF0F931F93CF93DF93E9
:10444000EC0189018F81833039F089E0440F551FD9
:10445000661F771F8A95D1F79A01AB0168E1CE01FB
:10446000FADE882321F086E08C8310E007C0A801E3
:104470006EEFCE0195DF811109C011E0CE0128DF7A
:10448000812FDF91CF911F910F9108950F94832E6B
:10449000182F811103C087E18C83F0CF20E030E03A
:1044A000A9016DE0CE01D7DE811104C00E94D18543
:1044B000882319F386E1D8CF1F93CF93DF93EC01C4
:1044C000BEDE20E030E0A9016CE0CE01C4DE11E0E8
:1044D000882319F010E083E08C83CE01F9DE812F70
:1044E000DF91CF911F9108951F93CF93DF93EC013C
:1044F0008F81833039F089E0440F551F661F771F85
:104500008A95D1F79A01AB0162E1CE01A4DE11E0F8
:10451000882319F010E085E08C83CE01D9DE812F4D
:10452000DF91CF911F9108958F929F92AF92BF928A
:10453000EF92FF920F931F93CF93DF938C01EB01C8
:104540007A010F94772E4B015C012CE2820E21E060
:10455000921EA11CB11C0E94D185F80186838F3F59
:1045600069F40F94772E681979098A099B0997FDD8
:10457000F2CF81E1F8018483C0E021C08E3F69F56C
:10458000F1E0EF1AF1088FEF8EBDFE012FEF0DB4B1
:1045900007FEFDCF8EB581932EBDCF018C1B9D0BE9
:1045A0008E159F05A0F30DB407FEFDCF8EB5CE0D81
:1045B000DF1D88830E94D1850E94D185C1E0C8019A
:1045C00087DE8C2FDF91CF911F910F91FF90EF909D
:1045D000BF90AF909F908F9008958FE0CBCF0F93B7
:1045E0001F93CF93DF93EC018B0129DE40E052E073
:1045F000B801CE01DF91CF911F910F9195CF0F930D
:104600001F93CF93DF93EC0189018F81833039F0C1
:1046100089E0440F551F661F771F8A95D1F79A01CD
:10462000AB0161E1CE0117DE811109C040E052E02B
:10463000B801CE01DF91CF911F910F9175CF84E02A
:104640008C83CE0145DE80E0DF91CF911F910F91E9
:1046500008958F929F92AF92BF92CF92DF92EF9286
:10466000FF920F931F93CF93DF93EC01162F1F82BE
:104670001C824B830F94772E6B017C0120EDC20EC0
:1046800027E0D21EE11CF11CA89561E08B810F94FC
:10469000E32B61E08B810F948E2C209A289A219A2B
:1046A0002398229A81E00E94D88585E08D830E941C
:1046B000D8850AE08FEF0E94CC850150D9F7A895E4
:1046C00020E030E0A90160E0CE01C5DD8E838130BD
:1046D00079F00F94772E6C197D098E099F0997FD4B
:1046E000EFCF81E08C83CE01F3DD1A8280E065C0DC
:1046F000A8952AEA31E040E050E068E0CE01ABDD69
:10470000853031F581E08F83A8958F81812C912CA4
:104710005401823029F4812C912CA12C80E4B82EF4
:1047200020E030E0A90167E3CE0195DDA501940109
:1047300069E2CE0190DD8E838823F1F00F94772E0D
:104740006C197D098E099F0997FDEACF8AE0CACFCF
:1047500004E00E94D1858E830150D9F78A3A11F482
:1047600082E0D1CF0F94772E6C197D098E099F09B5
:1047700097FDBFCF82E0B6CF8F818230B9F420E0C1
:1047800030E0A9016AE3CE0166DD882311F088E0FC
:10479000A9CF0E94D185807C803C11F483E08F8377
:1047A0000E94D1850E94D1850E94D185CE0190DDE5
:1047B00081E08A83173070F41D83DF91CF911F91C0
:1047C0000F91FF90EF90DF90CF90BF90AF909F90B0
:1047D0008F90089588E18C8389CF0F931F93CF9397
:1047E000DF93EC018B0120E030E0A90169E033DDCB
:1047F000811109C040E150E0B801CE01DF91CF91B5
:104800001F910F9191CE80E18C83CE0161DD80E01C
:10481000DF91CF911F910F91089560914B1270E03D
:1048200090E080E00D94D722609148127091491277
:104830008FE092E10D944C31609185127091861257
:104840008CE492E10D944C316091C2127091C312CC
:1048500089E892E10D944C316091FF127091001340
:1048600086EC92E10D944C316091881270E090E0FA
:1048700080E00D9442236091C51270E090E080E0EA
:104880000D9492236091021370E090E080E00D940B
:10489000E2230D9432240D943A240D9442240D9475
:1048A0004A2440913A0521E0422764E070E00D94EB
:1048B000981C40913A0521E0422761E070E00D9498
:1048C000981C40913A0521E042276CE070E00D947D
:1048D000981C40913A0521E0422761E070E00D9478
:1048E000981C40913A0521E0422768E070E00D9461
:1048F000981C40913A0521E042276CE070E00D944D
:10490000981C41E061E070E00D94981C41E062E089
:1049100070E00D94981C40913A0521E042270D94D7
:10492000981C64E070E00D94B82D62E070E00D9486
:10493000B82D61E070E00D94B82D61E070E00D9449
:10494000B82D6CE070E00D94B82DCF93C82FCB013B
:104950000E941C7E87E094E00E941C7E88EF93E01A
:10496000CC2311F08DEF93E0CF910C9467844F929C
:104970005F926F927F928F929F92AF92BF92CF92EF
:10498000DF92FF920F931F93CF93DF93F82EC82FE0
:10499000D0E0FE01E655F54C6491062E000C770B35
:1049A000880B990B0F9419484B015C016E01CC0CDC
:1049B000DD1CCC0CDD1CF601E154FB4F259135913B
:1049C00045915491C501B4010F9478482B013C01E5
:1049D000EBEBF4E0659175918591949120E030E0E6
:1049E00040EC5FE30F947848A50194010F94784858
:1049F000AB01BC0100E010E098018F2D0F94E82579
:104A000020E030E0A901C301B2010F9413488823CC
:104A100091F1B301A201705800E010E098018F2DD0
:104A20000F94E825A3019201C301B2010F94C94C70
:104A30004B015C01FE01E055FB4F6491611107C021
:104A40000E94F9818EE894E00E941C7E6AE070E08A
:104A500090E080E00F9417489B01AC0160E070E0AB
:104A600080E091E40F94A54D8B019C01B501A40158
:104A70008F2D0F94E825F601E45CFB4F8080918038
:104A8000A280B38020E030E0A901C501B4010F94F9
:104A9000134887FF43C020E030E0A901C501B401FD
:104AA0000F943D4F2401350187FF04C077FA7094BD
:104AB00077F87094F601E958F84F20E030E040ECC8
:104AC00050E460817181828193810F947848A301C1
:104AD00092010F94134887FF21C0FE01E055FB4F60
:104AE0006491611107C00E94F9818EE894E00E94F0
:104AF0001C7E6AE070E090E080E00F9417489B0114
:104B0000AC0160E070E080E091E40F94A54D8B0172
:104B10009C01B501A4018F2D0F94E825DF91CF9161
:104B20001F910F91FF90DF90CF90BF90AF909F901B
:104B30008F907F906F905F904F9008956CE870E237
:104B400080EC91E60C943AD86FE870E284EA90E247
:104B50000C943AD80F931F93CF93DF930F94B227FF
:104B6000D0911A07C0E0D1112DC080911C07882375
:104B7000C1F080915E02882361F081E090911C0772
:104B8000911180E003E023E049E553E06C2F0E949F
:104B900090D9DF5FCF5FC43031F785E080931B078A
:104BA0000CC080910F0710920F07882311F30E9409
:104BB000ADCA809130078823E1F2DF91CF911F9138
:104BC0000F910895D13079F580911C078130C1F0A3
:104BD00080915E028823E9F211E080911C07813008
:104BE00009F010E08091FF129091001349DA00E083
:104BF0009C014EE353E06C2F812F0E94FFD8C9CF58
:104C000080910F0710920F07882311F34CE254E2B2
:104C10006FEF72E18EE393E00F94542A8091300796
:104C20008823B1F2CACFD23009F06BC080911C0743
:104C30008230A9F080915E02882309F4AACF11E0A6
:104C400080911C07823009F010E08091C21290918F
:104C5000C31216DA00E09C014CE353E0CCCF809104
:104C60000F0710920F07882329F344E254E262EC05
:104C700072E18CE393E00F94542A809130078823EB
:104C8000C9F29BCF80911C078330A9F080915E020E
:104C9000882309F47ECF11E080911C07833009F04E
:104CA00010E08091851290918612EAD900E09C0173
:104CB0004AE353E0A0CF80910F0710920F0788239B
:104CC00029F34CE154E265E872E18AE393E00F9442
:104CD000542A809130078823C9F26FCF80910F0743
:104CE00010920F078823B9F044E154E268E472E1BE
:104CF00087E393E00F94542A80913007882359F07A
:104D00005CCFD33009F4BECFD43009F042CF8091CC
:104D10001C07843019F380915E02882309F439CF8F
:104D200011E080911C07843009F010E08091481256
:104D300090914912A5D900E09C0147E353E05BCF75
:104D4000EF92FF920F931F93CF93DF930F94B227AD
:104D5000D0911A0711E0C0E0FF24F39483E0E82E1D
:104D6000D1112FC01123D9F080911C071816BCF067
:104D700040912007509121076091220770912307ED
:104D80004F5F5F4F6F4F7F4F409320075093210736
:104D900060932207709323078F5F80931C07809195
:104DA0005E02882331F041E065E673E08C2F0F94BA
:104DB0009526DF5FCF5FC43099F686E080931B07AE
:104DC00025C0D13051F580911C07813099F0809138
:104DD0005E02882369F081E090911C07913009F010
:104DE00080E003E023E049E553E06C2F0E9490D976
:104DF00010E0DFCF80910F0710920F07882339F35F
:104E00000E94ADCA80913007882309F3DF91CF91CA
:104E10001F910F91FF90EF900895D23009F0A6C036
:104E200080911C078230C9F080915E02882301F3D3
:104E300081E090911C07923009F080E0909101137D
:104E400024E533E0911102C020E533E001E047E5BD
:104E500053E06C2F0E94FFD8CBCF80910F071092A8
:104E60000F07882309F3809101138F258093011385
:104E7000E0925E020EDD809130078823A9F2C6CF52
:104E800080910F0710920F07882309F477C0809153
:104E9000C4128F258093C412D0935E02FCDC8091F3
:104EA0003007882309F46AC0B1CFD43071F58091FE
:104EB0001C078430B9F080915E02882309F498CFF2
:104EC00081E090911C07943009F080E09091871266
:104ED00024E533E0911102C020E533E001E04CE429
:104EE00053E0B7CF80910F0710920F07882319F373
:104EF000809187128F2580938712E0925E02CDDC2D
:104F0000809130078823B9F281CFD53009F051CF95
:104F100080911C078530B9F080915E02882309F4E6
:104F200067CF81E090911C07953009F080E0909167
:104F30004A1224E533E0911102C020E533E001E09C
:104F400049E453E086CF80910F0710920F07882322
:104F500019F380914A128F2580934A12E0925E02E3
:104F60009EDC809130078823B9F250CFD33009F00E
:104F70009CCF80911C07833009F482CF80915E0220
:104F8000882309F435CF81E090911C07933009F014
:104F900080E09091C41224E533E0911102C020E535
:104FA00033E001E04EE453E054CFCF93DF93EC01C4
:104FB0008991882319F00E940C7EFACFDF91CF915E
:104FC00008958BE1E6EBF1E1ABE9B1E101900D92DF
:104FD0008A95E1F780917D14806480937D1410920E
:104FE00072148FEF9FEF90933902809338020895E7
:104FF00080917D1484FF04C08460877F80937D143A
:105000000895CF92DF92EF92FF920F931F93CF9369
:10501000DF93CDB7DEB7EDB6FEB6DC010D90002014
:10502000E9F79D01281B390B285F3F4FEDB7FEB70D
:10503000E21BF30B0FB6F894FEBF0FBEEDBF0DB72A
:105040001EB70F5F1F4F9F938F938DEB98E09F9339
:105050008F931F930F930F94AC476801F4E0CF0E2A
:10506000D11C0F900F900F900F900F900F90D601C2
:105070008D916D01882349F0082E000C990B0F9437
:105080001051F60131978083F2CF68EB78E0C801C8
:105090000F9445474FE350E0B80185EB96E00F943D
:1050A00061510FB6F894FEBE0FBEEDBEDF91CF91F9
:1050B0001F910F91FF90EF90DF90CF900895FC012A
:1050C000938591FF02C080E00895987121E09031AE
:1050D00009F020E080917D1420FB85F980937D14F8
:1050E000903141F08085873471F781E091859E375A
:1050F00051F3089581E0FDCFFC0120E03EE2DB01A9
:105100004D91BD01403249F0283011F43083319681
:10511000DB0111974C91408331962F5F2B3079F74B
:1051200010820895CF938091FA10C1E08823C9F0CE
:105130008091FB109091FC104091F2105091F3106F
:105140006091F4107091F510DC01ED91FC910288F2
:10515000F389E02D22EF3EE01995C82F811104C09C
:10516000C0E08C2FCF9108954091F6105091F71028
:105170006091F8107091F9104115510561057105A4
:10518000B9F08091FB109091FC10DC01ED91FC9145
:105190000288F389E02D22EF3EE01995882301F380
:1051A0001092F6101092F7101092F8101092F91059
:1051B0001092FA10D6CFCF92DF92EF92FF92CF9358
:1051C0006B017C01C42F8091F2109091F310A0919B
:1051D000F410B091F5108C159D05AE05BF0519F1C1
:1051E000A1DF811107C080E0CF91FF90EF90DF90A9
:1051F000CF9008958091FB109091FC10DC01ED910F
:10520000FC910088F189E02D22EF3EE0B701A60174
:105210001995882341F3C092F210D092F310E092D6
:10522000F410F092F51081E0CC23F1F28093FA10A3
:10523000DBCF4F925F926F927F928F929F92AF924D
:10524000BF92CF92DF92EF92FF920F931F93CF9373
:10525000DF93EC01423051056105710590F480E067
:10526000DF91CF911F910F91FF90EF90DF90CF9042
:10527000BF90AF909F908F907F906F905F904F9076
:10528000089589859A85AB85BC850196A11DB11DC0
:1052900084179507A607B70710F38F898031C1F5EA
:1052A000852E962EA72EBB248B899C89AD89BE891D
:1052B000880E991EAA1EBB1E280139016A017B01B6
:1052C00041E0C501B40177DF882349F29F8990311D
:1052D00081F5DD24EE24FF24F601EE0FFF1FEE50D2
:1052E000F14F118300839A89923008F4B9CF4D8130
:1052F0005E816F817885840E951EA61EB71E8092F2
:10530000F6109092F710A092F810B092F910A8CF72
:10531000803209F0A4CF8B899C89AD89BE894A016E
:105320005B01E7E0B694A79497948794EA95D1F748
:10533000BFCFE894C7F8DD24EE24FF24F601EE0F7A
:10534000FF1FEE0FFF1FEE50F14F4082518262822D
:105350007382C9CFCF92DF92EF92FF920F931F9388
:10536000CF93DF93FC0181859285A385B485019657
:10537000A11DB11D84179507A607B70750F480E05B
:10538000DF91CF911F910F91FF90EF90DF90CF9021
:10539000089587898031A9F5BB27A72F962F852FE0
:1053A000C388D488E588F6888C0D9D1DAE1DBF1D71
:1053B000E9016A017B018F014091F2105091F310D5
:1053C0006091F4107091F51084179507A607B70740
:1053D00049F5F8018789803161F5B701A6015527A4
:1053E00066277727440F551F4E50514FFA01808191
:1053F0009181B0E0A0E088839983AA83BB8381E098
:10540000BFCF803209F0BBCFC388D488E588F68847
:10541000DB01CA01C7E0B695A79597958795CA9510
:10542000D1F7C2CF40E0BC01CD01C5DE8111D1CFA3
:10543000A6CFB701A6014F77552766277727440FD8
:10544000551F440F551F4E50514FFA0180819181D5
:10545000A281B381BF70CFCF4F925F926F927F9244
:10546000AF92BF92CF92DF92EF92FF920F931F9372
:10547000CF93DF9300D01F92CDB7DEB78C01498365
:105480005A836B837C835901C12CD12C7601412C2A
:1054900082E0582E612C712C49815A816B817C816C
:1054A0009E012F5F3F4FC80155DF882319F1F80196
:1054B0008585A301920104C0220F331F441F551F8D
:1054C0008A95D2F7DA01C901C80ED91EEA1EFB1E61
:1054D00049815A816B817C8187898031F1F481E037
:1054E000483F5F4F61057105B8F2F501C082D18276
:1054F000E282F3820F900F900F900F90DF91CF9187
:105500001F910F91FF90EF90DF90CF90BF90AF90E1
:105510007F906F905F904F90089581E0483F5F4F7C
:105520006F4F7F4008F4B8CFE0CF0F931F93CF9316
:10553000DF93FC012381222331F080E0DF91CF91C2
:105540001F910F9108958B01EC01FB018789803138
:1055500039F582E08B831D8A1E8A1F8A188E808D02
:10556000918DB0E0A0E025E0880F991FAA1FBB1F16
:105570002A95D1F7898B9A8BAB8BBC8B1A8F098FAD
:1055800081E08983188619861A861B861C821D82F3
:105590001E821F82188A1C861D861E861F86CECFFD
:1055A000803259F683E08B83428D538D648D758DE7
:1055B0004D8B5E8B6F8B788F9E012F5E3F4FC801A6
:1055C0004BDF8111DBCFB9CF8F929F92AF92BF9209
:1055D000CF92DF92EF92FF920F931F93CF93DF93BF
:1055E000EC018B8181110EC080E0DF91CF911F9182
:1055F0000F91FF90EF90DF90CF90BF90AF909F9072
:105600008F90089509891A892B893C8904171507F9
:105610002607370748F34A015B01823031F4888658
:105620009986AA86BB8681E0E0CF81149104A1040B
:10563000B10449F4188619861A861B861C821D82BD
:105640001E821F82F0CF088519852A853B85E98D4A
:10565000FA8D858590E00996B901A801415051095C
:1056600061097109082E04C076956795579547958D
:105670000A94D2F775016401E1E0CE1AD108E1087D
:10568000F10804C0F694E794D794C7948A95D2F7AA
:10569000C416D506E606F70620F0012B022B032BD5
:1056A00009F58D899E89AF89B88D8C839D83AE83E2
:1056B000BF838E010C5F1F4FC114D104E104F104BC
:1056C00009F4ADCF4C815D816E817F819801898D18
:1056D0009A8D40DE91E0C91AD108E108F1088111E4
:1056E000EBCF82CFC41AD50AE60AF70AE2CF2F928F
:1056F0003F924F925F926F927F928F929F92AF9262
:10570000BF92CF92DF92EF92FF920F931F93CF93AE
:10571000DF93EC014B017A018B81811115C08FEF72
:105720009FEFDF91CF911F910F91FF90EF90DF904E
:10573000CF90BF90AF909F908F907F906F905F9031
:105740004F903F902F900895898180FFE8CF8989FD
:105750009A89AB89BC89488559856A857B85841B74
:10576000950BA60BB70BA70170E060E084179507B7
:10577000A607B70708F47C0167011E0124E0220E8A
:10578000311CC114D10409F4A7C0488559856A8524
:105790007B855A0181E0B822898D9A8D2A013B01CF
:1057A00029E076946794579447942A95D1F72B81F2
:1057B000FC01223079F5628D738D848D958D640D99
:1057C000751D861D971D00E012E00A191B09C01601
:1057D000D10608F486010115E2E01E0771F440903D
:1057E000F2105090F3106090F4107090F510641562
:1057F00075058605970509F04CC040E0DCDC882380
:1058000009F48DCFB5016E50714FA801C4010F94FA
:10581000255151C0148111501421A114B10471F407
:1058200011110CC0452B462B472B51F58D899E89B4
:10583000AF89B88D8C839D83AE83BF83E98DFA8D4C
:105840004C805D806E807F8022E0421A51086108A2
:105850007108858504C0440C551C661C771C8A950C
:10586000D2F786859785A089B189480E591E6A1E90
:105870007B1EC301B201610F711D811D911DA3CF5C
:105880004C815D816E817F81910164DD8111D6CF74
:1058900046CFA091FB10B091FC10ED91FC911197B7
:1058A0000088F189E02D9401AB01BC01CD0119956F
:1058B000882309F434CF800E911E88859985AA85A6
:1058C000BB85800F911FA11DB11D88879987AA876D
:1058D000BB87C01AD10A55CFC70123CFCF93DF931F
:1058E000EC01462F41706C857D858E859F8563DC3C
:1058F000882351F0888920E2829FC00111248E50B4
:10590000914FDF91CF91089590E080E0FACFCF934F
:10591000DF93EC018B81882339F1898187FF21C0D6
:1059200061E0CE01DBDFFC01892BF1F08081853E57
:10593000D9F08B81823040F489899A89AB89BC89FE
:10594000848F958FA68FB78F8D899E89938F828F35
:105950008D899E89AF89B88DB58BA48B89818F770E
:105960008983DF91CF91DECB81E0888380E0DF9176
:10597000CF910895CF93DF93EC01C9DF1B82DF91B4
:10598000CF91089580917D148F7780937D140E942C
:105990002E7D882319F082E691E1ECCF0895CF9314
:1059A000C0917D14C2FF1BC0C7FD19C00E942E7D8F
:1059B00080FBC7F9C0937D1480917D148F7E806435
:1059C00080937D148FEF9FEF90933902809338027C
:1059D0000E94F98186EA98E0CF910C941C7ED2DF78
:1059E000EBCFCF93DF9380917D148F7E80937D14D6
:1059F0008FEF9FEF90933902809338028091B91115
:105A0000882319F086EB91E1B5DF80917E149091A7
:105A10007F14DC01ED91FC910190F081E02D45E3D4
:105A200060E01995811111C00E94F9818AE998E01E
:105A30000E941C7E80917D1484FF32C0C2DA83E014
:105A400080935E02DF91CF910895C0917E14D09132
:105A50007F1461E0CE010F94331D81110BC060E013
:105A6000CE010F94331D811105C00E944A8086E843
:105A700098E0DECF6DE771E186EB91E156DD8111B3
:105A800005C00E944A8085E798E0D2CF80917D14BE
:105A9000806180937D140E94F98189E698E0C8CFE7
:105AA0008091F606882359F261E089E598E00E942A
:105AB000E3C80E9478CAC3CFCF93DF93EB01FC0108
:105AC0002381211104C080E0DF91CF9108952250FD
:105AD000223028F48FE28883198281E0F5CF60E0DC
