:100000000C94B7210C94F7210C94F7210C94F72150
:100010000C94F7210C94F7210C94F7210C94F72100
:100020000C94F7210D944A5B0D944A5B0D944A5B46
:100030000C94F7210D946F5E0C94F7210C94F7212A
:100040000C94F7210D947C080C94F7210C94F72163
:100050000C94F7210D943C070C94F7210D94255E28
:100060000C94F7210C94035B0C94F95A0C94F7212F
:100070000C94F7210C94F7210C94F7210C94F721A0
:100080000C94F7210C94F7210C94F7210C94F72190
:100090000C94F7210C94F7210C94F7210C94F72180
:1000A0000C94F7210C94F7210C94F7210C94F72170
:1000B0000C94F7210C94F7210C94F7210C94F72160
:1000C0000C94F7210C94F7210C94F7210C94F72150
:1000D0000C94F7210C94F7210C94F7210C94F72140
:1000E0000C94F721084AD73B3BCE016E84BCBFFD80
:1000F000C12F3D6C74319ABD56833DDA3D00C77FF8
:1001000011BED9E4BB4C3E916BAAAABE0000008090
:100110003F05A84CCDB2D44EB93836A9020C50B91F
:10012000918688083CA6AAAA2ABE000000803F0744
:10013000634236B79BD8A71A39685618AEBAAB5582
:100140008C1D3CB7CC5763BD6DEDFD753EF6177247
:1001500031BF000000803F08000000BE9224491219
:100160003EABAAAA2ABECDCCCC4C3E00000080BE3D
:10017000ABAAAAAA3E00000000BF000000803F001A
:1001800000000000084178D3BB4387D1133D190E0E
:100190003CC3BD4282AD2B3E68EC8276BED98FE176
:1001A000A93E4C80EFFFBE01C4FF7F3F000000006E
:1001B00000000D9466390D9458390D941F650D9407
:1001C0008E5C0D945E390D948D380D94E3390D9449
:1001D00098390D9485390D94A45D0D947D390D9455
:1001E000A6380D941C5F0D9499390D94A05C0D9464
:1001F00073390D9462390D949D390D948F390D9496
:1002000093390D94103A0D9405650D948B390D9426
:1002100081390D9477390D94A5380D9419390D94C1
:100220006A390D946D390D9402394E414E494E494B
:100230005459494E46CDCCCC3D0AD7233C17B7D1B3
:100240003877CC2B329595E6241FB14F0A00002059
:10025000410000C84200401C4620BCBE4CCA1B0ED8
:100260005AAEC59D7400407A10F35A00A0724E1821
:10027000090010A5D4E80000E87648170000E40B58
:1002800054020000CA9A3B000000E1F5050000801E
:10029000969800000040420F000000A08601000078
:1002A00000102700000000E80300000000640000C8
:1002B0000000000A00000000000100000000002C07
:1002C00076D888DC674F0823DFC1DFAE59E1B1B7CC
:1002D00096E5E3E453C63AE651997696E8E6C28499
:1002E00026EB898C9B62ED407C6FFCEFBC9C9F40B1
:1002F000F2BAA56FA5F490055A2AF75C936B6CF9D6
:10030000676DC11BFCE0E40D47FEF520E6B500D0AB
:10031000ED902E0300943577050080841E080000C0
:10032000204E0A000000C80C333333330F986E128E
:10033000831141EF8D2114893BE65516CFFEE6DB94
:1003400018D1844B381BF77C1D901DA4BBE42420DE
:100350003284725E228100C9F124ECA1E53D27437D
:100360004F4D4D554E49434154494F4E004452590B
:1003700052554E004552524F525300494E464F007F
:100380004543484F004572726F72207772697469F5
:100390006E6720746F20454550524F4D210A000D65
:1003A0000E0302260E0F3812133E1A1C180A0720DD
:1003B000090708000153544F505045442E20005067
:1003C00072696E7465722073746F707065642064F6
:1003D000756520746F206572726F72732E20466986
:1003E0007820746865206572726F7220616E642077
:1003F000757365204D39393920746F2072657374B7
:100400006172742E202854656D7065726174757206
:10041000652069732072657365742E20536574209E
:100420006974206166746572207265737461727498
:10043000696E67290A004E6F20436865636B7375A8
:100440006D2077697468206C696E65206E756D62C9
:1004500065722C204C617374204C696E653A2000E3
:100460004E6F20436865636B73756D2077697468A0
:10047000206C696E65206E756D6265722C204C6112
:100480007374204C696E653A2000636865636B7312
:10049000756D206D69736D617463682C204C617398
:1004A00074204C696E653A20004C696E65204E756B
:1004B0006D626572206973206E6F74204C61737475
:1004C000204C696E65204E756D6265722B312C2053
:1004D0004C617374204C696E653A20004D313130A7
:1004E0000053657269616C20737461747573206D5B
:1004F00069736D617463680A0053442072656164B6
:10050000206572726F720A004B494C4C2062757400
:10051000746F6E2F70696E002121204B494C4C2066
:100520006361757365642062792000746F6F206D5C
:1005300075636820696E6163746976652074696D9E
:1005400065202D2063757272656E7420636F6D6D0A
:10055000616E643A20002121204B494C4C2063619C
:10056000757365642062792000627573793A207032
:10057000617573656420666F7220696E7075740AA8
:1005800000627573793A2070617573656420666FD7
:100590007220757365720A00627573793A20707201
:1005A0006F63657373696E670A0053442043617219
:1005B000642052656D6F7665640053442043617218
:1005C0006420496E73657274656400506C65617374
:1005D00065205265736574005052494E544552204F
:1005E00048414C5445440025533A202553004B497B
:1005F0004C4C45442E20005072696E746572206820
:10060000616C7465642E206B696C6C2829206361B1
:100610006C6C6564210A006563686F3A004572720C
:100620006F723A0042696C696E656172204C657642
:10063000656C696E6720477269643A0A00486F7496
:10064000656E6420746F6F20636F6C640A00507273
:1006500065737320627574746F6E20746F20726599
:1006600073756D650A00496E736572742066696CF6
:10067000616D656E7420616E6420707265737320A5
:10068000627574746F6E0A00526568656174204407
:100690006F6E6500526568656174696E672E2E2EF7
:1006A00000507265737320627574746F6E20746F7E
:1006B0002068656174206E6F7A7A6C650A004865FF
:1006C00061642063616E6E6F742062652070617278
:1006D0006B6564004C4F570048494748004F4B003A
:1006E0004572726F723A20416C6C200020636F6E0D
:1006F0006E656374696F6E2E2E2E200054657374C0
:10070000696E6720004C4F570048494748004F4BDF
:10071000004572726F723A20416C6C200020636F4A
:100720006E6E656374696F6E2E2E2E200054657395
:1007300074696E6720004C4F570048494748004F86
:100740004B004572726F723A20416C6C200020633E
:100750006F6E6E656374696F6E2E2E2E2000546569
:100760007374696E6720004C4F5700484947480032
:100770004F4B004572726F723A20416C6C20002022
:10078000636F6E6E656374696F6E2E2E2E2000543B
:10079000657374696E672000544D4320434F4E4E7D
:1007A000454354494F4E204552524F52004F464602
:1007B0000A004661646520486569676874200042E4
:1007C0006564204C6576656C696E672000466169DA
:1007D0006C656420746F20656E61626C6520426593
:1007E00064204C6576656C696E670A00496E7661B7
:1007F0006C6964206D6573682E0A0050726F6269BF
:100800006E6720506F696E740025532025692F256F
:1008100069002E0A002F0050726F62696E67206DAA
:1008200065736820706F696E7420002028445259E7
:1008300052554E2900473239204175746F20426568
:1008400064204C6576656C696E67003F20284C2CEF
:10085000522C462C4229206F7574206F6620626FDF
:10086000756E64732E0A00290A003F46656564723E
:100870006174652028532920746F6F206C6F772E68
:1008800020285573696E6720003F285629657262DB
:100890006F7365206C6576656C20696D706C617531
:1008A0007369626C652028302D34292E0A0042615C
:1008B00064205A2076616C75650A004E6F2062696B
:1008C0006C696E65617220677269640A002020009D
:1008D00020205261646975733A00547A005479009B
:1008E00054780020205261646975733A00457A009B
:1008F0004579004578002E4865696768743A007844
:1009000079007A7800797A00207A002079002078BE
:100910000063002E2020202000253033692E78002F
:10092000302E25303369002073643A0073746420DC
:100930006465763A00456E64204452592D52554EF6
:1009400000737464206465763A004E6F20636F6EA6
:1009500076657267656E6365004974657261746976
:100960006F6E203A2025303269005361766520771A
:10097000697468204D35303020616E642F6F7220AD
:10098000636F707920746F20436F6E66696775724C
:100990006174696F6E2E680A00253033692E780005
:1009A000302E253033690043616C6962726174696D
:1009B0006F6E2073643A00737464206465763A0045
:1009C000726F6C6C696E67206261636B2E004361AD
:1009D0006C6962726174696F6E204F4B00436F7275
:1009E000726563742064656C7461207365747469E6
:1009F0006E67732077697468204D36363520616ED6
:100A000064204D3636360A0020284452592D52555E
:100A10004E2900206174207261646975733A004345
:100A20006865636B696E672E2E2E20414300473345
:100A300033204175746F2043616C69627261746523
:100A40000A003F2856296572626F7365206C6576CF
:100A5000656C20696D706C61757369626C652028C6
:100A6000302D33292E0A003F2846296F72636520F6
:100A7000697465726174696F6E20696D706C6175FF
:100A80007369626C652028302D3330292E0A003FAF
:100A9000284329616C6962726174696F6E2070729B
:100AA00065636973696F6E20696D706C61757369D8
:100AB000626C6520283E3D30292E0A003F285029CF
:100AC0006F696E747320696D706C61757369626CA7
:100AD000652028302D3130292E0A00204300204285
:100AE0000020410020530020480020520020204DCB
:100AF000363635204C0044656C746120284C3C64CB
:100B00006961676F6E616C2D726F643E20523C723A
:100B100061646975733E20483C6865696768743E26
:100B200020533C7365672D7065722D7365633E209D
:100B300058595A3C746F7765722D616E676C652DDC
:100B40007472696D3E204142433C726F642D747231
:100B5000696D3E290020204D363636205800456EFE
:100B60006473746F702061646A7573746D656E74FC
:100B70000020440020204D323030205300202844F3
:100B8000697361626C6564293A0046696C616D65E0
:100B90006E742073657474696E67730020204D3223
:100BA00030312058004D617820416363656C657277
:100BB0006174696F6E2028756E6974732F733229A2
:100BC0000020204D3230332058004D61782066657A
:100BD000656472617465732028756E6974732F7310
:100BE000290020520020204D323034205000416333
:100BF00063656C65726174696F6E2028756E6974C7
:100C0000732F7332292028503C7072696E742D61E5
:100C10006363656C3E20523C726574726163742D2F
:100C2000616363656C3E20543C74726176656C2D23
:100C3000616363656C3E290020540020530020202E
:100C40004D323035204200416476616E6365642028
:100C500028423C6D696E5F7365676D656E745F7485
:100C6000696D655F75733E20533C6D696E5F6665A7
:100C70006564726174653E20543C6D696E5F747288
:100C80006176656C5F66656564726174653E205867
:100C90003C6D61785F6A65726B3E20593C6D61788E
:100CA0005F6A65726B3E205A3C6D61785F6A65725F
:100CB0006B3E20453C6D61785F6A65726B3E290032
:100CC00020440020490020204D333031205000487E
:100CD0006F74656E64205049440050574D3A20208F
:100CE0002534640050574D3A202025346400505775
:100CF0004D3A20202534640050574D3A20202534A9
:100D0000640050574D3A20202534640050574D3A26
:100D100020202534640050574D3A202025346400AB
:100D200050574D3A20202534640050574D3A20202A
:100D30002534640050574D3A202025346400505724
:100D40004D3A20202534640050574D3A2020253458
:100D5000640050574D3A20202534640050574D3AD6
:100D600020202534640050574D3A2020253464005B
:100D700050574D3A2020253464003A20002020208E
:100D800020434F4D002020206E6F6E2D7374616ED6
:100D9000646172642050574D206D6F64650020209F
:100DA00020636F6D7061726520696E746572727513
:100DB000707420656E61626C6564002020206F761F
:100DC0006572666C6F7720696E7465727275707487
:100DD00020656E61626C6564003A2000202020204E
:100DE00054494D534B00423A2000202020205443C8
:100DF000435200413A200020202020544343520017
:100E00002020202043533A20002020202057474D07
:100E10003A200050574D3A20202534640050574D59
:100E20003A20202534640047004800000088008AEA
:100E3000008C00B300B400000098009A009C00A849
:100E400000AA00AC0028012A012C012020202054F7
:100E5000494D455200440045006E00800081006FFE
:100E600000B000B1007000900091007100A000A1DE
:100E700000720020012101730020697320616C73EE
:100E80006F207469656420746F20746869732070C2
:100E9000696E0054494D45523143000A202E00200E
:100EA00020002020506F72743A20004C4F570048A9
:100EB00049474800446F6E652E0A0050756C73698F
:100EC0006E6720202000556E746F7563686564201E
:100ED00000534552564F206E6F7420736574207511
:100EE000702E0A00436C69636B20746F2052657327
:100EF000756D652E2E2E00202D20005761746368BD
:100F0000696E672070696E002069730073206172DA
:100F100065002070726F7465637465642E2055736C
:100F2000652027492720746F206F76657272696487
:100F3000652E0A005370656369666965642070698F
:100F40006E0064697300656E0061626C65640065C3
:100F50006E6473746F70206D6F6E69746F722000B1
:100F600020204D61783A2000200020204D696E3A03
:100F70002000203B200020204D32313120530053EF
:100F80006F667420656E6473746F707300203B002D
:100F900020550020204D363033204C0046696C61CE
:100FA0006D656E74206C6F61642F756E6C6F61641B
:100FB000007370726561644379636C650073746576
:100FC000616C746843686F70002064726976657242
:100FD000206D6F64653A09007370726561644379CE
:100FE000636C6500737465616C746843686F70004E
:100FF00020647269766572206D6F64653A090073CA
:1010000070726561644379636C6500737465616CCB
:10101000746843686F700020647269766572206D31
:101020006F64653A09007370726561644379636C3B
:101030006500737465616C746843686F7000206448
:101040007269766572206D6F64653A090020737469
:1010500065616C746843686F70206D61782073708F
:101060006565643A200020737465616C7468436838
:101070006F70206D61782073706565643A20002080
:10108000737465616C746843686F70206D6178205B
:1010900073706565643A200020737465616C7468D0
:1010A00043686F70206D61782073706565643A20C5
:1010B00000202E68737472743A2000202E68656ECA
:1010C000643A20002063686F70706572202E746F20
:1010D00066663A2000202E68737472743A200020ED
:1010E0002E68656E643A20002063686F70706572C8
:1010F000202E746F66663A2000202E687374727416
:101100003A2000202E68656E643A20002063686FE4
:1011100070706572202E746F66663A2000202E680B
:10112000737472743A2000202E68656E643A200051
:101130002063686F70706572202E746F66663A2047
:10114000003F53206F7574206F662072616E676573
:101150002028312E2E38290A003F50206F75742028
:101160006F662072616E676520282D332E2E313216
:10117000290A003F4F206F7574206F662072616EE0
:1011800067652028312E2E3135290A003B20004783
:10119000322F47332062616420706172616D657423
:1011A0006572730A00536C6565702E2E2E004732EF
:1011B000384C30005A2050726F6265205061737451
:1011C0002042656400205A3A0020593A0042656482
:1011D00020583A004D65736820706F696E74206FF7
:1011E0007574206F662072616E67650A00436C69D2
:1011F000636B20746F20526573756D652E2E2E0003
:101200004E6F204D6F76652E00456E642066696CCA
:1012100065206C6973740A00426567696E206669AF
:101220006C65206C6973740A004E6F206D6564698B
:10123000610A00534420636172642072656C6561C9
:101240007365640A00286E6F2066696C6529004327
:10125000757272656E742066696C653A20004E6F17
:1012600074205344207072696E74696E670A00536B
:1012700044207072696E74696E67206279746520AB
:10128000002E0A0044656C6574696F6E20666169A2
:101290006C65642C2046696C653A200046696C6573
:1012A0002064656C657465643A005072696E7420E0
:1012B00074696D653A20000A53746174733A20466C
:1012C000696C616D656E7420757365643A20002CDD
:1012D000204C6F6E67657374206A6F623A20005409
:1012E0006F74616C2074696D653A20005374617489
:1012F000733A20002C204661696C65643A20002C0A
:101300002046696E69736865643A20005072696EA0
:1013100074733A200053746174733A20006F6B0049
:101320004C696E653A20006F66660080037B03742B
:10133000036D035F0344454255473A004D31313256
:101340002053687574646F776E004D3131332053CC
:10135000004D6963726F6D616B65204431204F46AB
:10136000462E0020732E0A00496E61637469766907
:1013700074792074696D656F757420002F2F004D8E
:1013800031343520533C696E6465783E206F757446
:10139000206F662072616E67652028302D31290A22
:1013A000005741524E494E4721204C6F77205A201A
:1013B0004A65726B206D6179206C65616420746F81
:1013C00020756E77616E74656420706175736573E6
:1013D0002E0A00250A0046523A0020466C6F773AE2
:1013E000200064697300656E0043290061626C65CA
:1013F0006420286D696E2074656D702000436F6CE9
:10140000642065787472756465732061726520006C
:101410004D34323120696E636F727265637420706F
:101420006172616D657465722075736167650A002C
:101430004D65736820706F696E74206F7574206FCE
:10144000662072616E67650A00454550524F4D2017
:101450004F4B0A003F4D363636206F666673657413
:1014600073206D757374206265203C3D20300A0046
:10147000206472697665722063757272656E743A63
:101480002000206472697665722063757272656EE1
:10149000743A2000206472697665722063757272F6
:1014A000656E743A200020647269766572206375F7
:1014B0007272656E743A20004D383400446F6E6568
:1014C000207072696E74696E672066696C650A00C7
:1014D0004D3737004D3331004361703A00434F4E72
:1014E0004649475F4558504F5254004D454154506E
:1014F00041434B00434F4F4C45525F54454D50457F
:10150000524154555245004348414D4245525F5463
:10151000454D50455241545552450045505F42415A
:10152000425953544550004241425953544550503A
:10153000494E470041524353004D4F54494F4E5F6F
:101540004D4F44455300544845524D414C5F505215
:101550004F54454354494F4E00455854454E444519
:10156000445F4D323000435553544F4D5F4649520E
:101570004D574152455F55504C4F4144004C464EEB
:101580005F5752495445004C4F4E475F46494C45C2
:101590004E414D45004155544F5245504F52545FB6
:1015A00053445F5354415455530053445F57524979
:1015B000544500524550454154004D554C54495FE7
:1015C000564F4C554D4500534443415244005052F0
:1015D0004F4D50545F535550504F525400484F5345
:1015E000545F414354494F4E5F434F4D4D414E442C
:1015F0005300454D455247454E43595F5041525364
:10160000455200434153455F4C494748545F42525D
:10161000494748544E45535300544F47474C455F44
:101620004C494748545300534F4654574152455F25
:10163000504F574552004255494C445F5045524324
:10164000454E54004C4556454C494E475F44415425
:1016500041005A5F50524F42450052554E4F55542B
:10166000004155544F4C4556454C005052494E543C
:101670005F4A4F420050524F475245535300415525
:10168000544F5245504F52545F54454D50004155B0
:10169000544F5245504F52545F504F5300564F4C89
:1016A000554D455452494300454550524F4D004217
:1016B000494E4152595F46494C455F5452414E5341
:1016C0004645520053455249414C5F584F4E5F5872
:1016D0004F4646004649524D574152455F4E414D97
:1016E000453A4D61726C696E20322E312E332D6277
:1016F0006574613320284A756C20313320323032D2
:10170000352031333A31373A32322920534F55524E
:1017100043455F434F44455F55524C3A676974688F
:1017200075622E636F6D2F4D61726C696E466972C2
:101730006D776172652F4D61726C696E2050524FEA
:10174000544F434F4C5F56455253494F4E3A312EFA
:1017500030204D414348494E455F545950453A4D1C
:101760006963726F6D616B65204431204B494E4552
:101770004D41544943533A44454C544120455854F3
:1017800052554445525F434F554E543A31205555BA
:1017900049443A63656465326132662D34316132A1
:1017A0002D343734382D396231322D633535633677
:1017B0003266333637666600290A0020746F2000CF
:1017C0003F5A206F7574206F662072616E676520C6
:1017D0002800290A0020746F20003F59206F75747B
:1017E000206F662072616E6765202800290A00203C
:1017F000746F20003F58206F7574206F66207261EF
:101800006E6765202800203B0020204D38353120B0
:1018100058005A2D50726F6265204F66667365746A
:10182000002569730025696D2025697300256968A5
:101830002025696D20256973002569642025696864
:101840002025696D20256973002569792025696443
:10185000202569682025696D2025697300436F6F15
:101860006C696E672E2E2E004531202553002057BF
:101870003A0042656420436F6F6C696E672E2E2EAE
:10188000004265642048656174696E672E2E2E00E3
:10189000206661696C65642120426164206865612D
:1018A0007465722069640A00504944204175746F60
:1018B00074756E650023646566696E6520444546EF
:1018C00041554C545F004B6420004B6920004B7025
:1018D00020002066696E6973686564212050757404
:1018E00020746865206C617374204B702C204B69E8
:1018F00020616E64204B6420636F6E7374616E743C
:10190000732066726F6D2062656C6F7720696E74EC
:101910006F20436F6E66696775726174696F6E2EB2
:10192000680A00504944204175746F74756E6500F3
:10193000206661696C6564212074696D656F7574DA
:101940000A00504944204175746F74756E6500201B
:101950006661696C6564212054656D70657261749F
:1019600075726520746F6F20686967680A00504956
:1019700044204175746F74756E650050494420436E
:1019800079636C65730025532025692F2569002034
:101990004B643A2000204B693A2000204B703A20DB
:1019A0000020436C617373696320504944200A002E
:1019B0002054753A2000204B753A2000206D617844
:1019C0003A2000206D696E3A200020643A20002001
:1019D000626961733A200048656174696E672E2EF2
:1019E0002E002073746172740A00504944204175BE
:1019F000746F74756E6500206661696C6564212082
:101A000054656D706572617475726520746F6F20B6
:101A1000686967680A00504944204175746F74759D
:101A20006E6500504944204175746F74756E650091
:101A3000A10000006900A20000006300B0000000E7
:101A40000900C10000004100C20000004100C300C5
:101A500000004100C40000004100C500000041003A
:101A6000C60000004145C70000004300C800000058
:101A70004500C90000004500CD0000004900D1002C
:101A800000004E00D50000004F00D60000004F00BF
:101A9000D70000007800DC0000005500DD000000E9
:101AA0005900E00000006100E10000006100E20078
:101AB00000006100E30000006100E400000061003C
:101AC000E50000006100E60000006165E70000003D
:101AD0006300E80000006500E90000006500EA001E
:101AE00000006500EB0000006500EC0000006900EC
:101AF000ED0000006900EE0000006900EF0000004A
:101B00006900F10000006E00F20000006F00F300B9
:101B100000006F00F40000006F00F50000006F008F
:101B2000F60000006F00F80000006F00F9000000F0
:101B30007500FA0000007500FB0000007500FC0055
:101B400000007500FD0000007900FF000000790032
:101B500004010000410005010000610006010000D1
:101B600043000701000063000C01000043000D0169
:101B7000000063000E01000044000F01000064003B
:101B80001101000064001901000065001A01000045
:101B900045001B01000065001F01000067003001C7
:101BA00000004900310100006900410100004C00C3
:101BB000420100006C00430100004E00440100009F
:101BC0006E00480100006E005801000052005901EB
:101BD000000072005A01000053005B010000730016
:101BE0005F0100007300600100005300610100000C
:101BF00073006501000074006F01000075007C0136
:101C000000007A007D0100005A007E0100007A0089
:101C1000920100006600E30200007800222000002C
:101C20002E001E210000507822210000544D9021EA
:101C300000003C2D922100002D3EB0210000030049
:101C4000BB21000004003C2200007E00482200006E
:101C50007E3D60220000213D612200003D006422A3
:101C600000003C3D652200003E3DF12300000700DE
:101C7000A03000003D0021F301000200C2F4010089
:101C80000500A2000000EC00B0000000DF00E4004E
:101C90000000E100F6000000EF00F7000000FD008A
:101CA000FC000000F500E3020000EB0087030000E9
:101CB000A5008F030000F40098030000F2009E03CB
:101CC0000000E300A3030000F600A9030000F400F5
:101CD000AC030000E000AD030000E300B10300002E
:101CE000E000B2030000E200B5030000E300B80327
:101CF0000000F200BC030000E400BE030000E300AB
:101D0000C0030000F700C1030000E600C3030000A9
:101D1000E500902100007F00922100007E001A2241
:101D20000000E8001E220000F30088250000FF00EC
:101D300002300000A1000C300000A2000D300000B5
:101D4000A3009B300000DE009C300000DF00A030CC
:101D500000003D00A1300000A700A2300000B1004B
:101D6000A3300000A800A4300000B200A53000009D
:101D7000A900A6300000B300A7300000AA00A830D8
:101D80000000B400A9300000AB00AA300000B5008C
:101D9000AB300000B600AC300000B6DEAD30000065
:101DA000B700AE300000B7DEAF300000B800B03092
:101DB0000000B8DEB1300000B900B2300000B9DE7A
:101DC000B3300000BA00B4300000BADEB530000015
:101DD000BB00B6300000BBDEB7300000BC00B8303E
:101DE0000000BCDEB9300000BD00BA300000BDDE2E
:101DF000BB300000BE00BC300000BEDEBD300000C5
:101E0000BF00BE300000BFDEBF300000C000C030E9
:101E10000000C0DEC1300000C100C2300000C1DEE1
:101E2000C3300000AF00C4300000C200C530000065
:101E3000C2DEC6300000C300C7300000C3DEC830B9
:101E40000000C400C9300000C4DECA300000C50074
:101E5000CB300000C600CC300000C700CD30000001
:101E6000C800CE300000C900CF300000CA00D0301A
:101E70000000CADED1300000CADFD2300000CB0043
:101E8000D3300000CBDED4300000CBDFD5300000F3
:101E9000CC00D6300000CCDED7300000CCDFD8300C
:101EA0000000CD00D9300000CDDEDA300000CDDFFB
:101EB000DB300000CE00DC300000CEDEDD30000084
:101EC000CEDFDE300000CF00DF300000D000E03099
:101ED0000000D100E1300000D200E2300000D30069
:101EE000E3300000AC00E4300000D400E530000036
:101EF000AD00E6300000D500E7300000AE00E8306D
:101F00000000D600E9300000D700EA300000D80019
:101F1000EB300000D900EC300000DA00ED300000BA
:101F2000DB00EF300000DC00F2300000A600F330F0
:101F30000000DD00F4300000B3DEF7300000DCDE2E
:101F4000FA300000A6DEFB300000A500FC300000E7
:101F5000B000FD300000A400074E0000FB008651D9
:101F60000000FC0043530000FA0064FF0000A400DE
:101F700065FF0000A50066FF0000A60067FF0000E7
:101F8000A70068FF0000A80069FF0000A9006AFF21
:101F90000000AA006BFF0000AB006CFF0000AC006B
:101FA0006DFF0000AD006EFF0000AE006FFF00008F
:101FB000AF0070FF0000B00071FF0000B10072FFC1
:101FC0000000B20073FF0000B30074FF0000B40013
:101FD00075FF0000B50076FF0000B60077FF000037
:101FE000B70078FF0000B80079FF0000B9007AFF61
:101FF0000000BA007BFF0000BB007CFF0000BC00BB
:102000007DFF0000BD007EFF0000BE007FFF0000DE
:10201000BF0080FF0000C00081FF0000C10082FF00
:102020000000C20083FF0000C30084FF0000C40062
:1020300085FF0000C50086FF0000C60087FF000086
:10204000C70088FF0000C80089FF0000C9008AFFA0
:102050000000CA008BFF0000CB008CFF0000CC000A
:102060008DFF0000CD008EFF0000CE008FFF00002E
:10207000CF0090FF0000D00091FF0000D10092FF40
:102080000000D20093FF0000D30094FF0000D400B2
:1020900095FF0000D50096FF0000D60097FF0000D6
:1020A000D70098FF0000D80099FF0000D9009AFFE0
:1020B0000000DA009BFF0000DB009CFF0000DC005A
:1020C0009DFF0000DD009EFF0000DE009FFF00007E
:1020D000DF00E5FF00005C000000000001020404D6
:1020E0000000001C1C0C040404020100000000009D
:1020F000040810000000000003002D2D2D2D2D2DB3
:10210000007C4D61726C696E7C0001002D2D2D2DBF
:102110002D2D00503A0053440025002568753A25BE
:10212000303268750025303268753A25303268756E
:102130000025303268752725303268750020002070
:10214000003A002000200020003A003A00001C1F46
:1021500011111F00000006191803130C00040E1FB4
:10216000041C000000000E1315110E00001C1018B6
:102170001705060500040A0A0A0A11110E0C1212AC
:102180000C00000000001F1511151F000020002585
:1021900000202020202020200020002020202000BF
:1021A00042656400456E636C6F7375726500554ED1
:1021B0004C4F41442046494C414D454E54004C4FF4
:1021C00041442046494C414D454E540046494C41FE
:1021D0004D454E54204348414E4745005072696E6C
:1021E000742041626F72746564004D323520500A6C
:1021F0004D32340050617573696E672E2E2E004D7E
:102200003234003F0049676E6F7265005265736536
:102210007400496E697469616C697A65204545503E
:10222000524F4D004D6F76696E672E2E2E004C6F0B
:102230006164206D6D00556E6C6F6164206D6D0082
:1022400046696C2E204469612E004F6666004F6E11
:10225000004520696E206D6D5E33002002204661CE
:102260006374002002204D6178002002204D696EC9
:10227000004D696E2054726176656C2053706565FF
:1022800064004D696E2056656C6F63697479004D0A
:1022900061782040205370656564004D6178204569
:1022A00020416363656C004D617820402041636389
:1022B000656C0054726176656C20416363656C00E7
:1022C0005265747261637420416363656C0041639D
:1022D00063656C004D61782040204A65726B004058
:1022E0002073746570732F6D6D00416476616E6349
:1022F00065642053657474696E6773003F004361C1
:102300006E63656C00496E697400496E6974696139
:102310006C697A6520454550524F4D0046696C61A5
:102320006D656E740054656D70657261747572656B
:1023300000544D432044726976657273005374658E
:1023400070732F6D6D004A65726B00416363656C3D
:1023500065726174696F6E004D61782053706565B8
:102360006420286D6D2F732900436F6E6669677551
:10237000726174696F6E00426564004E6F7A7A6CA8
:10238000650046616E20537065656400436F6E663C
:10239000696775726174696F6E00526573746F72EC
:1023A000652044656661756C7473004C6F616420D0
:1023B00053657474696E67730053746F726520534C
:1023C000657474696E677300507265686561742026
:1023D0002420436F6E6669670044656C7461204316
:1023E000616C6962726174696F6E00416476616EDE
:1023F0006365642053657474696E6773004D616929
:102400006E204D656E7500486F6D696E6720585976
:102410005A004469616720526F6400547A0054790D
:102420000054780052616469757300457A004579FB
:10243000004578004865696768740044656C74619C
:102440002043616C6962726174696F6E0043616CF4
:102450006962726174652043656E746572004361E0
:102460006C696272617465205A0043616C696272C2
:1024700061746520590043616C6962726174652002
:1024800058004175746F20486F6D650044656C7429
:10249000612053657474696E6773004C6F616420CA
:1024A00053657474696E67730053746F726520535B
:1024B000657474696E6773004175746F2043616C55
:1024C0006962726174696F6E00473333004D6169F0
:1024D0006E204D656E75004D3730322054256400F6
:1024E0004D36303020423020542564004D37303294
:1024F000203B2564004D37303120542564004D3792
:102500003032004D373031004D363030204230000F
:102510004D61696E204D656E7500436F6E74696E16
:102520007565005075726765206D6F726500524564
:1025300053554D45204F5054494F4E533A00505239
:10254000494E54205041555345440020002000205E
:102550002020002F006572720020204E6F7A7A6C66
:10256000653A20005061726B696E672E2E2E000056
:10257000005761697420666F720066696C616D65F1
:102580006E74206368616E676500746F2073746198
:102590007274005761697420666F720066696C61BD
:1025A0006D656E7420756E6C6F616400004E6F7A9D
:1025B0007A6C652068656174696E6700506C65614E
:1025C000736520776169742E2E2E0000507265733A
:1025D0007320627574746F6E00746F206865617427
:1025E000206E6F7A7A6C650000496E736572742094
:1025F00066696C616D656E7400616E6420707265F1
:10260000737320627574746F6E00746F20636F6EE5
:1026100074696E7565005761697420666F72006633
:10262000696C616D656E74206C6F6164000050723E
:1026300065737320427574746F6E00746F207265D9
:1026400073756D65207072696E74000057616974EE
:1026500020666F72207072696E7400746F207265EC
:1026600073756D652E2E2E00005761697420666F9C
:10267000720066696C616D656E7420707572676555
:102680000000256C642E25696D00457874727564B0
:10269000656420546F74616C004C6F6E6765737471
:1026A000204A6F622054696D65005072696E742013
:1026B00054696D6500436F6D706C65746564003AB4
:1026C00020005072696E7420436F756E74003A205A
:1026D000003132300035004245443A204550434FE6
:1026E00053203130304B0052756E6177617920573D
:1026F000617463683A204F4E004D61782054656DD7
:102700007000323735004D696E2054656D700035AC
:102710000045313A204550434F53203130304B0073
:102720005053550047656E657269630050726F744F
:102730006F636F6C00312E3000426175640031317F
:1027400035323030004D4B532047454E204C2056FB
:10275000322E310042696C696E656172204C65767B
:10276000656C696E67004578747275646572730094
:1027700031006D61726C696E66772E6F7267004D05
:102780006963726F6D616B652044310032303235A0
:102790002D30362D323500322E312E332D626574B8
:1027A0006133004D61726C696E0053746174730023
:1027B000546865726D6973746F727300426F6172F1
:1027C0006420496E666F005072696E7465722049AC
:1027D0006E666F004D61696E204D656E75003F003D
:1027E0004261636B0053746F700053656C65637472
:1027F0002066726F6D2053442043617264005265FD
:102800006C656173652053442043617264004D32EE
:10281000320041626F7574205072696E7465720087
:10282000436F6E66696775726174696F6E00546597
:102830006D7065726174757265004368616E67657D
:102840002046696C616D656E740050726F62652020
:10285000616E64204C6576656C004D6F74696F6EB7
:1028600000526573756D65205072696E7400547501
:102870006E650053746F70205072696E7400506101
:10288000757365205072696E7400496E666F2053CF
:10289000637265656E003F005374617274205072FC
:1028A000696E740043616E63656C005072696E748A
:1028B0000043616E6E6F7420656E7465722073756F
:1028C000626469723A200005202E2E004D61696E07
:1028D000204D656E75002100486F74656E6420742C
:1028E0006F6F20636F6C64004261636B0050726FA6
:1028F00063656564004D6F76652045787472756414
:1029000065720046726565205859004F6666004F33
:102910006E00536F667420456E6473746F7073003D
:102920004D6F74696F6E0044697361626C6520530A
:1029300074657070657273004D3834004175746F42
:1029400020486F6D65004D61696E204D656E7500A4
:1029500053746F72652053657474696E67730050A9
:10296000726F62652040204F666673657400466131
:10297000646520486569676874004C6576656C20FD
:10298000426564004732394E00473239004F66666F
:10299000004F6E00426564204C6576656C696E6719
:1029A000004175746F20486F6D6500473238004DE7
:1029B00061696E204D656E75005072656865617461
:1029C000202420426564005072656865617420248B
:1029D00020456E640054656D706572617475726532
:1029E00000436F6F6C646F776E005072656865614D
:1029F0007420240046616E20537065656400426552
:102A000064004E6F7A7A6C65004D61696E204D6589
:102A10006E75004531004300420041004531005AC7
:102A200000590058004531005A0059004F666600B1
:102A30004F6E005800544D4320447269766572739E
:102A400000537465616C746843686F700048796204
:102A5000726964205468726573686F6C64004472B4
:102A6000697665722043757272656E740041647692
:102A7000616E6365642053657474696E67730046A4
:102A80006C6F770046616E20537065656400426527
:102A900064004E6F7A7A6C65005370656564004D12
:102AA00061696E204D656E75000000000000000039
:102AB000000080A243486F6D696E67204661696CB3
:102AC0006564006F70656E00545249474745524532
:102AD00044003A20007A5F6D6178007A5F6D696E1C
:102AE00000795F6D617800785F6D61780052657084
:102AF0006F7274696E6720656E6473746F70207393
:102B000074617475730A004572723A2045455052DB
:102B10004F4D20436F7272757074004572723A2087
:102B2000454550524F4D20435243004572723A2062
:102B3000454550524F4D2053697A65004572723AAF
:102B400020454550524F4D2056657273696F6E0097
:102B50000000AA420000AA420080A2430000AAC2CC
:102B60000000AAC20000000020746F6F206C6F6E1E
:102B70006720657874727573696F6E207072657600
:102B8000656E7465640A0020636F6C6420657874F8
:102B9000727573696F6E2070726576656E746564A8
:102BA0000A005761726E696E673A20486F6D696EF0
:102BB000672042756D702044697669736F72203C9E
:102BC00020310A000404040000A0400000A04000DE
:102BD00000A040205A3A200020593A200042656463
:102BE00020583A200050726F62696E672046616912
:102BF0006C65640A0050726F62696E672046616995
:102C00006C65640053657474696E67732053746FE8
:102C100072656400290A002062797465733B206341
:102C20007263200053657474696E67732053746F08
:102C3000726564202800204D61726C696E3D5639C2
:102C400030290A00454550524F4D20766572736910
:102C50006F6E206D69736D617463682028454550FF
:102C6000524F4D3D00454550524F4D2064617461B7
:102C700073697A65206572726F722E0A002028636C
:102C8000616C63756C6174656429210A0020213DC3
:102C90002000454550524F4D20435243206D6973EB
:102CA0006D61746368202D202873746F72656429C8
:102CB0002000454550524F4D20436F72727570741D
:102CC0000A002053697A653A2000496E6465783AB3
:102CD00020002062797465733B20637263200020BA
:102CE00073746F7265642073657474696E677320A2
:102CF0007265747269657665642028004861726443
:102D0000636F6465642044656661756C7420536507
:102D10007474696E6773204C6F61646564000000B1
:102D2000484300004843000048430000C8410000F9
:102D3000C8420000C8420000C84200002043B0045E
:102D40000000B0040000B00400002C0100002028A6
:102D50006D6D29004F4646004F4E00203B204C65CC
:102D600076656C696E67200020204D343230205328
:102D7000004175746F20426564204C6576656C690E
:102D80006E670020460020420020480020204D3180
:102D900034352053004D6174657269616C2068653B
:102DA0006174757020706172616D65746572730015
:102DB00020204D39303600205430204500537465B2
:102DC00070706572206472697665722063757272C4
:102DD000656E740020204D39313300205430204579
:102DE00000487962726964205468726573686F6C18
:102DF0006400543020450020580020204D353639DD
:102E00002053310044726976657220737465707066
:102E1000696E67206D6F646500204A00202047328C
:102E200039205720490020204D3134392043203BA0
:102E300020556E69747320696E2043656C736975E3
:102E4000730A0054656D7065726174757265205502
:102E50006E697473002020473231203B004C696E4C
:102E600065617220556E6974730024F4D43050C3C8
:102E70008D20C3A24117828B7011127A900D826C43
:102E8000DA0AA861E108C7586607615142061F4B7C
:102E90005E05C145A6041B411204093D9703723922
:102EA00031034136DB0266339202D4305302812E65
:102EB0001D02642CEE01762AC501B128A10110275C
:102EC00081018F2564012B244A01E1223401AD21C7
:102ED00020018D200C01811FFC00851EED00981D36
:102EE000DF00B91CD200E71BC700201BBB00651A1E
:102EF000B200B319A9000A19A0006A189800D217E5
:102F0000920040178A00B616840032167E00B4156F
:102F100079003B157400C7146F0058146A00EE1353
:102F200066008813620026135E00C8125B006D12F3
:102F3000570016125500C111510070114E00221198
:102F40004C00D61049008D10460047104500021075
:102F50004200C00F4000800F3E00420F3C00060FB1
:102F60003A00CC0E3900930E37005C0E3500270E68
:102F70003400F30D3200C10D3100900D2F00610DB2
:102F80002F00320D2D00050D2C00D90C2A00AF0C9E
:102F90002A00850C28005D0C2800350C27000E0C3B
:102FA0002500E90B2500C40B2400A00B23007D0B9A
:102FB00022005B0B21003A0B2100190B2000F90ABB
:102FC0001F00DA0A1F00BB0A1E009D0A1D00800AAE
:102FD0001C00640A1C00480A1C002C0A1B00110A71
:102FE0001A00F7091A00DD091900C4091900AB0914
:102FF0001800930918007B091700640917004D0990
:10300000170036091600200915000B091500F608EF
:103010001500E1081500CC081400B8081400A40835
:103020001300910813007E0813006B081200590862
:103030001200470812003508120023081100120878
:10304000110001081000F1071100E0071000D0077F
:103050001000C0070F00B1071000A1070F00920772
:103060000F0083070F0074070E0066070E00580755
:103070000E004A070E003C070E002E070D00210728
:103080000D0014070D0007070D00FA060D00ED06F0
:103090000C00E1060D00D4060C00C8060C00BC06AE
:1030A0000C00B0060B00A5060C0099060B008E065E
:1030B0000B0083060B0078060B006D060B00620602
:1030C0000B0057060A004D060A0043060B0038069F
:1030D0000A002E060A00240609001B060A00110633
:1030E0000A0007060900FE050A00F4050900EB05C1
:1030F0000900E2050900D9050900D0050900C70546
:103100000800BF050900B6050900AD050800A505C2
:1031100008009D050800950509008C050800840538
:1031200008007C050700750508006D0508006505A9
:1031300007005E050800560507004F050800470513
:1031400007004005070039050700320507002B0579
:103150000700240507001D050700160507000F05D9
:1031600006000905070002050600FC040700F50437
:103170000600EF040700E8040600E2040600DC0491
:103180000600D6040600D0040700C9040500C404E4
:103190000600BE040600B8040600B2040600AC0433
:1031A0000600A6040500A10406009B040500960481
:1031B0000600900405008B040600850405008004C9
:1031C00005007B04050076040600700405006B040E
:1031D000050066040500610405005C040500570451
:1031E0000500520405004D04050048040400440491
:1031F00005003F0405003A040400360405003104CC
:1032000005002C04040028040500230404001F0406
:1032100005001A04040016040400120405000D043D
:103220000400090404000504040001040500FC0373
:103230000400F8030400F4030400F0030400EC03AA
:103240000400E8030400E4030400E0030400DC03DA
:103250000400D8030400D4030300D1030400CD0309
:103260000400C9030400C5030400000000000000BE
:10327000000000000000000000000000000000004E
:103280000000D1036D6403570D0347C6023B8B0258
:103290003259022B2E0225090221E8011CCC011A09
:1032A000B201179B011487011374011163010F54BC
:1032B000010E46010D39010D2C010B21010A1701E8
:1032C0000A0D0109040108FC0008F40007ED0007DD
:1032D000E60007DF0006D90006D30005CE0006C8C9
:1032E0000005C30004BF0005BA0004B60004B20024
:1032F00004AE0004AA0004A60003A300049F000378
:103300009C00039900039600039300029100038E32
:1033100000028C00038900028700038400028200FF
:10332000028000027E00027C00027A000278000225
:103330007600017500027300027100017000026ED8
:1033400000016D00026B00016A0002680001670065
:103350000265000164000163000162000260000177
:103360005F00015E00015D00015C00015B00015A2D
:103370000001590001580001570001560001550095
:10338000015400015300015200015100005100019D
:103390005000014F00014E00014D00004D00014C56
:1033A00000014B00014A00004A00014900014800A9
:1033B00000480001470001460000460001450000AA
:1033C0004500014400014300004300014200004267
:1033D00000014100004100014000004000013F00A9
:1033E000003F00013E00003E00013D00003D0001A5
:1033F0003C00003C00013B00003B00013A00003A69
:10340000000139000039000039000138000038009F
:103410000137000037000037000136000036000099
:10342000360001350000350001340000340000345E
:10343000000133000033000033000132000032008D
:103440000032000131000031000031000031000184
:103450003000003000003000012F00002F00002F4E
:1034600000002F00012E00002E00002E00012D0074
:10347000002D00002D00002D00012C00002C00006C
:103480002C00002C00012B00002B00002B00002B37
:1034900000012A00002A00002A00002A00002A0059
:1034A000012900002900002900002900012800004E
:1034B000280000280000280000280001270000271D
:1034C000000027000027000027000126000026003A
:1034D000002600002600002600002600012500002E
:1034E00025000025000025000025000025000124FE
:1034F0000000240000240000240000240000240018
:10350000012300002300002300002300002300000B
:1035100023000122000022000022000022000022DD
:1035200000002200002200012100002100002100F3
:1035300000210000210000210000210001200000E6
:1035400020000020000020000020000020000020BB
:1035500000002000011F00001F00001F00001F00CE
:10356000001F00001F00001F0000433A00423A0005
:1035700020436F756E7420413A0000426564004537
:103580003100626564002C2073797374656D20735B
:10359000746F7070656421204865617465725F495D
:1035A000443A20004572723A204D415854454D50DE
:1035B000004D415854454D502074726967676572DB
:1035C00065640048656174696E67204661696C6571
:1035D000640048656174696E67206661696C656442
:1035E000004572723A204D494E54454D50004D49A8
:1035F0004E54454D5020747269676765726564006A
:10360000544845524D414C2052554E415741590066
:10361000546865726D616C2052756E6177617900D6
:103620000A0A0020205A5F4D41583A0020205A5F74
:103630004D494E3A002020595F4D41583A00202014
:10364000585F4D41583A00202F002042403A002058
:10365000403A0020573A007C3C3E5E2B3D3F2F5BBA
:103660005D3B2C2A225C005761726E696E673A00DE
:103670005344204361726420496E69742046616935
:103680006C0053442063617264206F6B0A006F709A
:10369000656E526F6F74206661696C65640A0076AE
:1036A0006F6C756D652E696E6974206661696C65F5
:1036B000640A004E6F20534420636172640A000A5A
:1036C0004D3234004D3233202573002E0A006F70C6
:1036D000656E206661696C65642C2046696C653A8C
:1036E000200046696C652073656C65637465640AC7
:1036F000002053697A653A200046696C65206F7036
:10370000656E65643A2000454E4420535542524F41
:103710005554494E450A002220706F7300222070D4
:103720006172656E743A2200535542524F555449A6
:103730004E452043414C4C207461726765743A22B7
:103740000053756263616C6C204F766572666C6FB6
:1037500077004578636565646564206D6178205302
:103760005542524F5554494E452064657074683A2D
:103770000057726974696E6720746F2066696C65A2
:103780003A2000667265736800646F696E67002096
:1037900066696C653A20004E6F7720002F61757462
:1037A0006F25632E670041425300504C4100453164
:1037B0005F53455249414C5F52585F50494E004556
:1037C000315F53455249414C5F54585F50494E0058
:1037D00045305F53455249414C5F52585F50494E06
:1037E0000045305F53455249414C5F54585F504942
:1037F0004E005A5F53455249414C5F52585F504901
:103800004E005A5F53455249414C5F54585F5049EE
:103810004E00595F53455249414C5F52585F5049E1
:103820004E00595F53455249414C5F54585F5049CF
:103830004E00585F53455249414C5F52585F5049C2
:103840004E00585F53455249414C5F54585F5049B0
:103850004E005A5F535445505F50494E005A5F45E1
:103860004E41424C455F50494E005A5F4449525FB9
:1038700050494E00595F535445505F50494E0059CE
:103880005F454E41424C455F50494E00595F4449A7
:10389000525F50494E00585F535445505F50494E57
:1038A00000585F454E41424C455F50494E00585FBD
:1038B0004449525F50494E005A5F4D494E5F505245
:1038C0004F42455F50494E0045315F444941475F93
:1038D00050494E0045305F444941475F50494E00D2
:1038E0005A5F444941475F50494E00595F4449413E
:1038F000475F50494E00585F444941475F50494E29
:10390000005A5F4D494E5F50494E005A5F4D415835
:103910005F50494E00595F53544F505F50494E001D
:10392000595F4D494E5F50494E00595F4D41585FB8
:1039300050494E00585F53544F505F50494E005805
:103940005F4D494E5F50494E00585F4D41585F50A2
:10395000494E00534552564F335F50494E00534530
:1039600052564F325F50494E00534552564F315FC9
:1039700050494E00534552564F305F50494E005308
:10398000445F4445544543545F50494E0053445F9F
:1039900053535F50494E0053445F53535F50494E59
:1039A0000053445F53434B5F50494E0053445F4DB7
:1039B0004F53495F50494E0053445F4D49534F5F49
:1039C00050494E004D4F534645545F435F50494E5A
:1039D000004D4F534645545F425F50494E004D4F96
:1039E000534645545F415F50494E0054454D505F2A
:1039F000305F43535F50494E004C45445F50494E41
:103A0000004C43445F50494E535F5253004C434473
:103A10005F50494E535F454E004C43445F50494E02
:103A2000535F4437004C43445F50494E535F443624
:103A3000004C43445F50494E535F4435004C43446F
:103A40005F50494E535F4434004B494C4C5F5049E2
:103A50004E004845415445525F4245445F50494EEF
:103A6000004845415445525F305F50494E00453053
:103A70005F4155544F5F46414E5F50494E004641AD
:103A80004E315F50494E0046414E305F50494E0026
:103A900045315F43535F50494E0045315F535445B4
:103AA000505F50494E0045315F454E41424C455FA5
:103AB00050494E0045315F4449525F50494E0045E0
:103AC000305F535445505F50494E0045305F454E7E
:103AD00041424C455F50494E0045305F4449525F7A
:103AE00050494E00455850325F30385F50494E00C3
:103AF000455850325F30375F50494E00455850327C
:103B00005F30365F50494E00455850325F30355F68
:103B100050494E00455850325F30345F50494E0096
:103B2000455850325F30335F50494E00455850324F
:103B30005F30325F50494E00455850325F30315F40
:103B400050494E00455850315F30385F50494E0063
:103B5000455850315F30375F50494E00455850311D
:103B60005F30365F50494E00455850315F30355F09
:103B700050494E00455850315F30345F50494E0037
:103B8000455850315F30335F50494E0045585031F1
:103B90005F30325F50494E00455850315F30315FE1
:103BA00050494E0042544E5F454E430042544E5FD2
:103BB000454E320042544E5F454E3100424545501D
:103BC00045525F50494E0054454D505F4245445F59
:103BD00050494E0054454D505F315F50494E00549E
:103BE000454D505F305F50494E0046494C5749445F
:103BF00054485F50494E00545844300052584430A5
:103C000000026D61726C696E66772E6F7267006D6F
:103C100061726C696E66772E6F726700322E312E7C
:103C2000332D626574613300322E312E332D62657F
:103C300074613300006D61726C696E66772E6F720D
:103C400067006D61726C696E66772E6F7267002017
:103C5000322E312E332D6265746133002001400114
:103C600030013B01400136016001310170012C013E
:103C700090012701B0012201C0011D01F0011801CE
:103C80001002130130020E016002090190020401CA
:103C9000C002FF000003FA004003F5008003F000BB
:103CA000D003EB002004E6007004E100E004DC0037
:103CB0004005D700C005D2004006CD00D006C800A0
:103CC0008007C3003008BE00F008B900C009B40086
:103CD000B00AAF00B00BAA00D00CA500000EA000E7
:103CE000500F9B00C01096005012910000148C00E1
:103CF000C0158700B0178200B0197D00D01B780076
:103D0000001E730040206E0090226900F0246400C1
:103D100040275F0090295A00E02B5500102E5000DC
:103D200020304B0010324600E033410090353C001B
:103D30001037370070383200A0392D00B03A280013
:103D4000A03B2300603C1E00103D1900903D140074
:103D5000103E0F00703E0A00C03E0500003F00000C
:103D6000403FFBFF803FF6FFC03FF1FF2020506C3B
:103D7000616E6E65724275666665724279746573CE
:103D80003A20002046726565204D656D6F72793A64
:103D9000200020436F6D70696C65643A204A756C31
:103DA00020313320323032350A00204C61737420C8
:103DB000557064617465643A20323032352D303686
:103DC0002D3235207C20417574686F723A2044434F
:103DD000524D0A004D61726C696E20322E312E33C5
:103DE0002D62657461330A0020536F6674776172C7
:103DF000652052657365740A0020576174636864B6
:103E00006F672052657365740A002042726F776E87
:103E1000206F75742052657365740A0020457874AC
:103E200065726E616C2052657365740A00506F771D
:103E3000657255700A0073746172740A00473238F3
:103E40005859004D31303031006F6B006572726F20
:103E5000722077726974696E6720746F2066696C6E
:103E6000650A00446F6E6520736176696E6720662F
:103E7000696C652E0A004D323900456E6473746FAB
:103E8000707300255320256320256320256320259A
:103E90006300205A3A0020593A0020583A00656ED3
:103EA0006473746F7073206869743A200000002195
:103EB00000240027002A002D0030003300010100FB
:103EC00000040107010A0100000A0B02090C0D0E93
:103ED00008070304010000000000000000000000CB
:103EE00000000000000000000000000000000000D2
:103EF000000000121110000000000000000000008F
:103F00000000000000000000000000000000002091
:103F1000002300260029002C002F003200000100A1
:103F20000003010601090100002200250028002BE2
:103F3000002E003100340002010000050108010BD1
:103F40000105050505070508080808020202020A1E
:103F50000A0808040404040101010101010101032C
:103F600003030303030303040707070C0C0C0C0CE7
:103F70000C0C0C0202020206060606060606060BDA
:103F80000B0B0B0B0B0B0B01021020200808102051
:103F900040102040800201020108040201010204D5
:103FA0000810204080804020100804020180040294
:103FB00001804020100804020108040201010204EB
:103FC00008102040800102040810204080302E306C
:103FD000323500302E3100312E30004D6F766520A5
:103FE000246D6D0031300000002A4300002A430098
:103FF00080A2434D6F76652041786973004D6F76DE
:1040000065202A004D6F7665204000AA37A6374309
:1040100068616E67652046696C616D656E740055F8
:104020006E6C6F61642046696C616D656E74004CE6
:104030006F61642046696C616D656E7400507265D5
:104040006865617420437573746F6D0050726568A4
:104050006561742024004261636B0053656C656385
:10406000742066726F6D2053442043617264002097
:104070000020002000200001010143616E6E6F747A
:10408000206F70656E207375626469722000202055
:104090002000202020416E616C6F6720696E203DFA
:1040A0002025356C64003C756E757365642F756EE4
:1040B0006B6E6F776E3E00202841253264292020E8
:1040C00000253364200050494E3A20004F7574702B
:1040D00075742000496E707574202000416E616C0B
:1040E0006F6720696E203D2025356C640070726F0B
:1040F000746563746564200020284125326429209A
:104100002000253364200050494E3A2000FC3B003B
:1041100001F73B0101EA3B3B00DF3B4300D43B4559
:1041200000C73B4400BC3B2501B43B1F01AC3B2115
:1041300001A43B2301983B25018C3B2301803B11CB
:1041400001743B1001683B17015C3B1901503B1B9C
:1041500001443B1D01383B32012C3B3401203B1F05
:1041600001143B3501083B2101FC3A3301F03A319F
:1041700001E43A2901D93A1C01CB3A1801BF3A1A95
:1041800001B43A2201A63A1E019A3A2401903A0C4F
:1041900001873A09017E3A07016E3A0701613A0A3E
:1041A00001523A0801493A29013D3A1701313A19B9
:1041B00001253A1B01193A1D010D3A1101013A106E
:1041C00001F9390D01EB394201DE390A01D1390714
:1041D00001C4390801B8393201AC393301A139348D
:1041E00001973935018D3935017F39310174390B2A
:1041F00001693915015E3927015339200149390216
:10420000013F390301343902012A390F0120390EE7
:104210000115390F010B39130101391201F6380369
:1042200001EB380E01E0381201D4380201C8380F12
:1042300001B8382001AE383701A13826019638364A
:10424000018C383D017F38380174383C016A3830C0
:10425000015D383E0152382E014238280132383F84
:104260000122383B011238400102382A01F237415D
:1042700001E1372C01D0374201BF371401AE370CB2
:1042800001496E736572742066696C616D656E7448
:1042900020616E6420707265737320627574746F30
:1042A0006E0A00220A00556E6B6E6F776E20636F88
:1042B0006D6D616E643A202200204500205A002076
:1042C000590020204D3932205800537465707320F6
:1042D00070657220756E69740020746F6F206C6F4A
:1042E0006E6720657874727573696F6E2070726581
:1042F00076656E7465640A0020636F6C642065786F
:1043000074727573696F6E2070726576656E746510
:10431000640A00486F6D65202573204669727374C6
:104320000020453A00205A3A0020593A00583A00F5
:104330006F6B0A00526573656E643A20004D6963C5
:10434000726F6D616B652044312052656164792E16
:10435000005072696E74696E672E2E2E005072695D
:104360006E742050617573656400DD0003011124D3
:104370001FBECFEFD1E2DEBFCDBF00E00CBF84B7E0
:104380008093BF1714BE0FB6F894A8958091600073
:10439000886180936000109260000FBE14E0A0E07E
:1043A000B2E0E6E0F4E003E00BBF02C007900D923C
:1043B000A432B107D9F727E1A4E2B4E001C01D920D
:1043C000AF3BB207E1F711E2C6EBD1E200E006C075
:1043D00021970109802FFE010F94D27CC53BD107A4
:1043E00080E00807A9F70F940E680D94F2810C94F1
:1043F0000000CF93DF93C091D808D091D90881E015
:10440000CE31D105E4F020E030E040E05FE36091A0
:10441000D4087091D5088091D6089091D7080F9450
:10442000177D0F945B7E6C1B7D0B77FF03C071952E
:104430006195710981E0633071050CF080E0DF91D6
:10444000CF910895CF93DF93DB01F9019C919130D7
:10445000C1F0943080F094509C938830D1F48081E6
:104460009181009771F0019791838083480F591FC4
:10447000EA01188206C08C3539F49C5F9C93943015
:1044800041F4DF91CF9108958B3339F781E08C931C
:10449000F8CF20813181B9016F5F7F4F71836083D5
:1044A000420F531FEA018883808191818F359105E6
:1044B0006CF7E7CF0F931F9381E000910A171091DB
:1044C0000B1720910C1730910D1740910617509142
:1044D0000717609108177091091704171507260729
:1044E000370708F480E01F910F91089590E080E075
:1044F00008952091F415833021F425FD0CC024FD8E
:104500000CC030E0A90102C0559547958A95E2F7A5
:10451000CA018170089581E0089580E00895809136
:10452000A50484FD0BC08091A70487FD07C090916E
:10453000A804937081E019F480E0089581E0089563
:104540002FEB280F2A3108F047C0E22FF0E08091CE
:10455000A5049091A604A091A704B091A80404C05A
:10456000B695A795979587952A95D2F780FD02C0B5
:1045700081700895EA57FB4FE081EE2341F180916D
:104580001B0990911C09E80FF92FF11D808190ED16
:10459000980F9A3030F08E3251F4818180538A30F6
:1045A00098F4F0937B04E0937A0481E008958D32CF
:1045B00011F08B3249F4818190ED980F9A3088F395
:1045C0008E3211F48281EACFF0E0E0E0EACF10927F
:1045D0007B0410927A04E9CF80E00895B1DF88234C
:1045E00041F081E020917A0430917B04232B09F47F
:1045F00080E008952F923F924F925F926F927F9248
:104600008F929F92AF92BF92CF92DF92EF92FF92E2
:104610000F931F93CF93DF93CDB7DEB72E970FB6CF
:10462000F894DEBF0FBECDBFE82ED62E042F122F7A
:10463000282F30E03C872B87462F50E05A87498748
:1046400069E0F62EF29EC001F39E900D11249E8724
:104650008D87FA01E80FF91FEE0FFF1FEE0FFF1F06
:10466000E153FA4F60817181828193819B01AC019A
:104670000F946180882309F434C1E00E612F6D0D21
:10468000FE9CF0011124A985BA85AE0FBF1FAA0FA9
:10469000BB1FAA0FBB1FA153BA4FAC901196BC9081
:1046A00011971296CC9012971396DC90E00EFE9C18
:1046B000A0011124A985BA85A40FB51FAA0FBB1F9D
:1046C000AA0FBB1FA153BA4FEC901196FC90119703
:1046D00012960C91129713969C90862F90E0AD85C0
:1046E000BE85A80FB91FAA0FBB1FAA0FBB1FA153DE
:1046F000BA4F8C9011967C90119712966C901297ED
:1047000013965C90610F70E0AD85BE85A60FB71F54
:10471000AA0FBB1FAA0FBB1FA153BA4F4C901196F3
:104720003C90119712961C91129713962C90E80FBB
:10473000F91FEE0FFF1FEE0FFF1FE153FA4FB0817D
:10474000B98321812A8332813B8383818C83FA015F
:10475000E60FF71FEE0FFF1FEE0FFF1FE153FA4F9B
:1047600090819D83A181AE83B281BF8323812887FD
:104770009701402F592DB701802F992D0F946180FB
:10478000882321F0E12CF12C00E0912C9501A60169
:10479000B501C6010F946180882319F05701C02E1E
:1047A000D92C242D332D412F522D642D732D812F83
:1047B000922D0F946180882321F0412C312C10E040
:1047C000212C282D372D462D552D682D772D862D02
:1047D000952D0F946180882321F0842C732C612EF9
:1047E000522C2D813E814F8158856D817E818F8134
:1047F00098850F946180882321F01D821E821F827C
:10480000188629813A814B815C8169817A818B810B
:104810009C810F946180882341F03D8139834E81D2
:104820004A835F815B8388858C8389E0EB85FC8587
:104830008E9FD0018F9FB00D112429853A85A20F3C
:10484000B31FAA0FBB1FAA0FBB1FA153BA4FBA8732
:10485000A9879501A601B501C6010F94177D97019F
:10486000402F592D0F94167D6B017C01282D372D7B
:10487000462D552D682D772D862D952D0F94177D5E
:10488000242D332D412F522D0F94167D9B01AC0109
:10489000C701B6010F94177D6B017C0129813A8114
:1048A0004B815C8169817A818B819C810F94177D1A
:1048B0002D813E814F8158850F94167D9B01AC015F
:1048C000C701B6010F94177D20E030E040E450E4CA
:1048D0000F94F37DA985BA856D937D938D939C93F9
:1048E00013972E960FB6F894DEBF0FBECDBFDF91A3
:1048F000CF911F910F91FF90EF90DF90CF90BF90DD
:10490000AF909F908F907F906F905F904F903F906F
:104910002F900895CF93DF93EC01FC0101900020CC
:10492000E9F7CF0101978C1B9D0B8E31910540F467
:104930004FE150E0481B590B8C0F9D1F0F940B75D6
:10494000CE01DF91CF9108952F923F924F925F92C7
:104950006F927F928F929F92AF92BF92CF92DF928F
:10496000EF92FF920F931F93CF93DF9300D000D06D
:10497000CDB7DEB76C015B01742E29013E2C6E2C85
:104980002EEF90EA892E91E2992E421304C024EA78
:10499000822E21E2922E85E4282E872D072C000CF2
:1049A000990BFC01EF54FD4FFE83ED8316140CF0C0
:1049B0007CC0AE014F5F5F4F69EC72EAC5010E9497
:1049C00088B57C0149815A816B817C8141155105F3
:1049D0006105710509F469C04B3751056105710521
:1049E00009F4DBC04E3751056105710509F4D5C0E6
:1049F0004A3251056105710509F072C077FE17C092
:104A0000462D062C000C550B4F5F5F4FB401C601BD
:104A10000F940B75C6010E947AB5681AF6010190D1
:104A20000020E9F79F012150310959012DC056019D
:104A3000FFEFAF1ABF0AF60120826A94662009F4DC
:104A40006DC0650181E04B3751056105710509F4C1
:104A500080E0870D8A3084F05601FFEFAF1ABF0A5D
:104A60006A946AE00F94827C805DF6018083662000
:104A700009F454C0892F65015601FFEFAF1ABF0A30
:104A8000805DF60180836A9416140CF047C0462DB1
:104A9000062C000C550B4F5F5F4FB701C5010F94FB
:104AA0000B75C5010E947AB5681A832D8619269662
:104AB0000FB6F894DEBF0FBECDBFDF91CF911F912F
:104AC0000F91FF90EF90DF90CF90BF90AF909F90AD
:104AD0008F907F906F905F904F903F902F900895B0
:104AE000443251056105710509F03EC001151105FB
:104AF000C1F0462D062C000C550B4F5F5F4FB801DF
:104B0000C6010F940B75C6010E947AB5681AF601AA
:104B100001900020E9F7CF0101975C016501570181
:104B200045CF4114510449F4D601F501EE16FF06B4
:104B300069F184918D933196F9CF462D062C000CA6
:104B4000550B4F5F5F4FB201C6010F945A75C601F6
:104B50000E947AB5681AF60101900020E9F79F01DA
:104B6000215031095901DACF4034510561057105F1
:104B7000D9F656013FEFA31AB30AED81FE81808179
:104B8000F6018083F50110826A94C8CF97012A1933
:104B90003B095901AC0CBD1CF5CF77FE53CF30CF8C
:104BA000CF93DF93C091D808D091D908209729F1ED
:104BB0006091D4087091D5088091D6089091D7085B
:104BC0000F945B7E6E5F7F4F24976C177D07ACF46C
:104BD00070932407609323070F94F25D605A754128
:104BE0008F4F9F4F60932507709326078093270769
:104BF00090932807DF91CF91089510922507109286
:104C000026071092270710922807F4CF0F931F93BF
:104C1000CF93DF9300D01F92CDB7DEB79C010DEE8E
:104C200018E090E1E3E6F2E0D80101900D929A9548
:104C3000E1F7F9012081318142815381F8016085DA
:104C40007185828593850F94177DF8016087718740
:104C50008287938780E090E0A8ECB2E489839A830E
:104C6000AB83BC8360E0CE0101960F942B2C0F9098
:104C70000F900F900F90DF91CF911F910F9108959A
:104C8000CF92DF92EF92FF920F931F93CF93DF9318
:104C900000D000D01F921F92CDB7DEB78E010F5FFC
:104CA0001F4FD80130E020E0FB01E20FF31FE49139
:104CB000ED932F5F3F4F28303105B1F7877098E0B3
:104CC000899FB001112460648DED95E10F940D5F13
:104CD00083E790E00197F1F77801E8E0EE0EF11C30
:104CE0008BE9C82ED12CF80161918F018DED95E1F2
:104CF0000F94103AC6010197F1F7E016F10699F703
:104D000028960FB6F894DEBF0FBECDBFDF91CF91CE
:104D10001F910F91FF90EF90DF90CF900895CF9269
:104D2000DF92EF92FF920F931F93CF93DF9300D008
:104D300000D0CDB7DEB78A0146E0469F9001479F7D
:104D4000300D1124BC01620F731F46E050E0CE010C
:104D500001960F94E574C980DA80EB80FC80F8013D
:104D600040815181628173818FEF9FEFC416D50618
:104D7000E606F70640F081E090E04C155D056E0513
:104D80007F0508F080E026960FB6F894DEBF0FBED0
:104D9000CDBFDF91CF911F910F91FF90EF90DF90EA
:104DA000CF9008950F931F93CF93DF93CDB7DEB7C6
:104DB0002E970FB6F894DEBF0FBECDBF8B011E86B7
:104DC0001D86FC0160817181828193816F83788768
:104DD00089879A872FEF2B876038710581059105A8
:104DE00038F48DED95E10F94103A81E090E02FC0FA
:104DF0009E01235F3F4FAE01495F5F4F69EB70E05B
:104E000082E89CE10F94824797FD2CC08D859E859A
:104E100026E0289FB001299F700D11246E57734E14
:104E200046E050E0CE0101960F94E5746D818DED62
:104E300095E10F94103A01301105B9F26E816623A5
:104E4000A1F28DED95E10F94103A82E090E02E965C
:104E50000FB6F894DEBF0FBECDBFDF91CF911F918B
:104E60000F9108959E01235F3F4FAE01495F5F4F51
:104E700063E670E080E39AE10F94824797FD0BC0F0
:104E80008D859E8526E0289FB001299F700D1124F5
:104E9000605D754EC5CF6FE3A4CF682F70E090E0E2
:104EA00080E00D94044CEF92FF920F931F93CF93E9
:104EB000DF93CDB7DEB764970FB6F894DEBF0FBEB1
:104EC000CDBF7C01FB0160817181828193818E0164
:104ED0000F5F1F4F248141E00F941770F70101907D
:104EE0000020E9F79F01215031092E193F092E3189
:104EF000310550F44FE150E0421B530BBC01C70198
:104F0000820F931F0F945A75C70164960FB6F894D9
:104F1000DEBF0FBECDBFDF91CF911F910F91FF90EC
:104F2000EF9008958F92AF92BF92CF92DF92EF925F
:104F30000F931F93CF93DF9300D000D01F921F9247
:104F4000CDB7DEB700E010E020EA30E40D831E8329
:104F50002F83388700E010E020E030EC09831A83CB
:104F60002B833C8333E0611131E0BC016C5F7F4FE8
:104F700088248394FE0135965F0134976F01E12CFC
:104F8000042F20E0432F0F945C2F28960FB6F8943F
:104F9000DEBF0FBECDBFDF91CF911F910F91EF907C
:104FA000DF90CF90BF90AF908F9008958F929F9297
:104FB000AF92BF92CF92DF92EF92FF92E0914810B2
:104FC000F09149106081718182819381C480D58084
:104FD000E680F7809B01AC010F9476764B015C0173
:104FE000A7019601C701B6010F9476769B01AC012B
:104FF000C501B4010F94177D0F941F806B017C01D4
:1050000020E030E040E251E40F94117687FF06C0C3
:10501000C12CD12C80E2E82E81E4F82EA701960164
:1050200060E070E08AEA92E40F94167D20E030E0C0
:10503000A9010F94177DFF90EF90DF90CF90BF9064
:10504000AF909F908F9008958F929F92AF92BF9252
:10505000CF92DF92EF92FF92E0914810F0914910C9
:105060006081718182819381C480D580E680F780E0
:105070009B01AC010F9476764B015C01A701960170
:10508000C701B6010F9476769B01AC01C501B4014E
:105090000F94177D0F941F806B017C0120E030E09E
:1050A00040E251E40F94117687FF06C0C12CD12C49
:1050B00080E2E82E81E4F82EA701960160E070E01E
:1050C0008AEA92E40F94167D9B01AC0160E070E0E7
:1050D000CB010F94167DFF90EF90DF90CF90BF90A3
:1050E000AF909F908F90089580917A0490917B0467
:1050F000009731F04AE050E070E060E00D94DD731D
:1051000060E070E0CB010895CF93DF93EC01FC01E8
:1051100001900020E9F7CF0101978C1B9D0B8E3188
:105120009105C0F45F934F937F936F932EE130E02E
:10513000281B390B3F932F938C0F9D1F9F938F93A9
:105140000F946E758DB79EB708960FB6F8949EBFF4
:105150000FBE8DBFCE01DF91CF910895CF93DF9326
:10516000EC01FC0101900020E9F7CF0101978C1BB5
:105170009D0B85319105C0F45F934F937F936F939F
:1051800025E130E0281B390B3F932F938C0F9D1F97
:105190009F938F930F946E758DB79EB708960FB639
:1051A000F8949EBF0FBE8DBFCE01DF91CF910895C1
:1051B0002F923F924F925F926F927F928F929F9227
:1051C000AF92BF92CF92DF92EF92FF920F931F9315
:1051D000CF93DF93CDB7DEB767970FB6F894DEBFF6
:1051E0000FBECDBF2C8B3D8B4E8B5F8B9F878E87E9
:1051F0006B0186E9282E312C10E0B101032C000C44
:10520000880B990B0F9417762BED3FE049E450E49F
:105210000F94767620E030E044E353E40F94F37D7E
:105220004B015C01111182C0E12CF12C00E01D86C4
:10523000EE85FF8581919191A191B191FF87EE87D4
:10524000888B998BAA8BBB8BC501B4010F941580F9
:105250002B013C01C501B4010F94F07D9701402F53
:105260005D850F94767669837A838B839C8397011F
:10527000402F5D85C301B2010F9476766D837E83E6
:105280008F83988788899989AA89BB8989879A8712
:10529000AB87BC87CE0101960E94E2A78091AB0943
:1052A0009091AC09A091AD09B091AE094091A709C8
:1052B0005091A8096091A9097091AA098090A30949
:1052C0009090A409A090A509B090A609F60180824B
:1052D0009182A282B38244835583668377838087D9
:1052E0009187A287B3871F5FFCE32F0E311C8CE0F0
:1052F000C80ED11C173009F080CF67960FB6F8940E
:10530000DEBF0FBECDBFDF91CF911F910F91FF90F8
:10531000EF90DF90CF90BF90AF909F908F907F9055
:105320006F905F904F903F902F900895EC88FD888C
:105330000E898F898D877CCF2F923F924F925F92FB
:105340006F927F928F929F92AF92BF92CF92DF9295
:10535000EF92FF920F931F93CF93DF93CDB7DEB7FA
:10536000C65DD1090FB6F894DEBF0FBECDBF1C01DC
:105370002A013B01C755DF4F8882C95AD040C65524
:10538000DF4F9882CA5AD040C555DF4FA882CB5A0A
:10539000D040C455DF4FB882CC5AD040C355DF4F00
:1053A000C882CD5AD040C255DF4FD882CE5AD040A5
:1053B000C155DF4FE882CF5AD040C055DF4FF88249
:1053C000C05BD040CF54DF4F0883C15BD040CE5488
:1053D000DF4F1883C25BD040CD54DF4F2883C35BBF
:1053E000D040CC54DF4F3883C45BD040C051DF4F36
:1053F00088819981AA81BB81C05FD040C953DF4FAA
:1054000088839983AA83BB83C75CD040CC50DF4F8D
:1054100088819981AA81BB81C45FD040C554DF4F88
:1054200088839983AA83BB83CB5BD040C850DF4F6E
:1054300088819981AA81BB81C85FD040CD53DF4F5D
:1054400088839983AA83BB83C35CD040D1018D91AB
:105450009D910D90BC91A02DC154DF4F88839983FD
:10546000AA83BB83CF5BD040AB019201BE016F5FCB
:105470007F4FC1019DDEC451DF4F288139814A81B0
:105480005B81CC5ED0406091AA057091AB058091A4
:10549000AC059091AD050F94177D6093AA057093AC
:1054A000AB058093AC059093AD05C953DF4F2881C0
:1054B00039814A815B81C75CD04060919A057091C7
:1054C0009B0580919C0590919D050F94177D60939D
:1054D0009A0570939B0580939C0590939D05C554F8
:1054E000DF4F288139814A815B81CB5BD04060915D
:1054F0009E0570919F058091A0059091A1050F9444
:10550000177D60939E0570939F058093A0059093EF
:10551000A105CD53DF4F288139814A815B81C35C6E
:10552000D0406091A2057091A3058091A40590914F
:10553000A5050F94177D6093A2057093A305809332
:10554000A4059093A5050E9416A9FE01EB5AFF4FF2
:10555000CB54DF4FF983E883C55BD040A3019201B0
:10556000BF01C10125DEC755DF4F88819981AA811E
:10557000BB81C95AD040C954DF4F88839983AA831D
:10558000BB83C75BD040C355DF4F88819981AA8117
:10559000BB81CD5AD040C553DF4F88839983AA83FE
:1055A000BB83CB5CD040CF54DF4F88819981AA81E7
:1055B000BB81C15BD040C153DF4F88839983AA83ED
:1055C000BB83CF5CD040DE01AB5ABF4F7D018E0163
:1055D0000F5F1F4FF7012481358146815781C553E5
:1055E000DF4F688179818A819B81CB5CD0400F94A9
:1055F000177D4B015C01D70118962D913D914D917E
:105600005C911B97C153DF4F688179818A819B81AF
:10561000CF5CD0400F94177DCD52DF4F68837983E4
:105620008A839B83C35DD040F70120813181428111
:105630005381C954DF4F688179818A819B81C75B1F
:10564000D0400F94177D9B01AC01D8016D917D91E5
:105650008D919C910F94167DF801608371838283F4
:105660009383A501940164817581868197810F944C
:10567000167DD80114966D937D938D939C93179707
:10568000CD52DF4F288139814A815B81C35DD04093
:1056900018966D917D918D919C911B970F94167D1D
:1056A000F8016087718782879387FCE0EF0EF11C19
:1056B000045F1F4FCB54DF4F88819981C55BD04079
:1056C0000817190709F086CF2091AA053091AB057C
:1056D0004091AC055091AD05C301B2010F94F37D2B
:1056E0006B017C0120E030E0A9010F94767620E088
:1056F00030E040E85FE30F94177D20E030E040E4C5
:1057000050E40F94F37D4B015C0129813A814B8178
:105710005C810F9476762B013C012D813E814F8177
:105720005885C501B4010F9476769B01AC01C30185
:10573000B2010F94177D2B013C0129853A854B85D9
:105740005C85C501B4010F9476769B01AC01C30161
:10575000B2010F94177DD1016D937D938D939C932E
:105760001397A7019601C701B6010F94177D20E09A
:1057700030E040E85FE30F94177D20E030E040E444
:1057800050E40F94F37DC954DF4F688379838A8393
:105790009B83C75BD040A701960160E070E080E882
:1057A0009FE30F94167D20E030E040E450E40F9436
:1057B000F37D4B015C012D853E854F855889C95489
:1057C000DF4F688179818A819B81C75BD0400F94CC
:1057D00076762B013C0129893A894B895C89C50180
:1057E000B4010F9476769B01AC01C301B2010F9412
:1057F000177D2B013C012D893E894F89588DC501AC
:10580000B4010F9476769B01AC01C301B2010F94F1
:10581000177DF10164837583868397832DA13EA153
:105820004FA158A5C501B4010F9476762B013C0118
:1058300029A53AA54BA55CA5C954DF4F688179819C
:105840008A819B81C75BD0400F9476769B01AC0127
:10585000C301B2010F94177D2B013C012DA53EA57C
:105860004FA558A9C501B4010F9476769B01AC01F0
:10587000C301B2010F94177DD1011C966D937D93E6
:105880008D939C931F9721962CAD3DAD4EAD5FAD92
:105890002197C501B4010F9476762B013C01259622
:1058A0002CAD3DAD4EAD5FAD2597C501B4010F9454
:1058B00076769B01AC01C301B2010F94177D4B01B9
:1058C0005C0129962CAD3DAD4EAD5FAD2997C95415
:1058D000DF4F688179818A819B81C75BD0400F94BB
:1058E00076769B01AC01C501B4010F94177DF101DF
:1058F000648B758B868B978B20E030E040E050EC1A
:10590000C701B6010F94767620E030E040E85FE30F
:105910000F94177D20E030E040E450E40F94F37DD5
:105920004B015C0120E030E040E85FE3C701B601D5
:105930000F94177D20E030E040E450E40F94F37DB5
:105940006B017C0129A93AA94BA95CA9C501B40145
:105950000F9476762B013C012DA93EA94FA958AD95
:10596000C701B6010F9476769B01AC01C301B20169
:105970000F94177D2B013C0129AD3AAD4BAD5CADC9
:10598000C701B6010F9476769B01AC01C301B20149
:105990000F94177DD10150966D937D938D939C93B9
:1059A00053972D962CAD3DAD4EAD5FAD2D97C701F4
:1059B000B6010F9476762B013C0161962CAD3DAD7E
:1059C0004EAD5FAD6197C501B4010F9476769B0132
:1059D000AC01C301B2010F94177D2B013C01659608
:1059E0002CAD3DAD4EAD5FAD6597C701B6010F94CF
:1059F00076769B01AC01C301B2010F94177DF101D2
:105A0000608F718F828F938F298D3A8D4B8D5C8D36
:105A1000C701B6010F9476762B013C012D8D3E8D8A
:105A20004F8D58A1C701B6010F9476769B01AC014A
:105A3000C301B2010F94177D6B017C0129A13AA12A
:105A40004BA15CA1C501B4010F9476769B01AC011A
:105A5000C701B6010F94177DD10118966D937D9300
:105A60008D939C931B9771016101B8E1CB0ED11C02
:105A7000C154DF4F288139814A815B81CF5BD0409F
:105A8000F10160817181828193810F94167D9B0168
:105A9000AC01D70114966D917D918D919C911797D2
:105AA0000F94167DF7016483758386839783F4E0F2
:105AB000EF0EF11CCE14DF04D9F6C154DF4F8881FC
:105AC0009981AA81BB81CF5BD040F1018083918312
:105AD000A283B383C451DF4F288139814A815B811E
